:100000000C9449050C9466050C9466050C946605E1
:100010000C9466050C9466050C9466050C946605B4
:100020000C9466050C9466050C944E190C948A1871
:100030000C94B8240C9466050C9466050C94660523
:100040000C9466050C9466050C9466050C94660584
:100050000C9466050C9446240C9466050C94660575
:100060000C9466050C9466050C9466050C94660564
:100070000C9466050C9466050C9466050C94660554
:100080000C9466050C9466050C9466050C94660544
:100090000C9466050C9466050C9466050C94660534
:1000A0000C9466050C9466050C9466055B0994092E
:1000B00099099E09A309A809AD09B209B709BC09A4
:1000C000C109BA06DC09DF09E209E509E809EB091B
:1000D000EE09070A9B0A9B0AD50AD50A200B3C0B9E
:1000E000050D650D7E0B5C0C6D0C6D0C720E750EA6
:1000F000780E7B0E7E0E810E840E3E1243124D1240
:10010000411246124B124912CD16F4166218F4161B
:1001100062183C175F1762181B182F18A81FA81F1A
:10012000BB1FBB1FB11FBB1FBB1FBB1FA81FA81F2F
:10013000B61FBB1FBB1FB61F294101001D00035185
:10014000E30000001E02050014002700E200E100A9
:100150001F021F4518001C00E0002B422002130064
:100160000C001B0050002C41210212000800360236
:100170004F0016082202240010000E000000AA0002
:100180001A081908000006080000A900390001003B
:10019000000001000000AE0023022F000600210035
:1001A0000000AB0024021900170004005200AC004C
:1001B0002502070016000A005100284126020F0000
:1001C00015000B00E4002A4227020D00110009006F
:1001D000E600E500085D1A0033002600E700000095
:1001E00001000100010001000100000006081B08D9
:1001F000010001000100010019081A0801000100B6
:1002000001000100280014080100010001000100A4
:100210002A000100010001000100010001000100AD
:1002200001000100000001001608010000000100AB
:1002300000000100010001000000140600000100A0
:1002400001000D181E08370A0000010001002A00F5
:1002500050001401000001000E0A520051004B0032
:100260004E00010009064C004F000801000001008B
:100270000100000028000000000001001A08190811
:1002800006081B081408000001000100010001001D
:1002900001000000010025003502370601000100C1
:1002A000010035002E023702010001000100220486
:1002B000220022060100010001002D042D002D0660
:1002C00001000100010034021E00110400000100C1
:1002D0000100010000000100000001000100010018
:1002E000000001000000010001002F000F06300097
:1002F0000000010001003802380030020100010056
:1003000001002E0021006400010001000100320004
:1003100037006402010001000100360020001002D5
:1003200001000100010001000100010001000000C6
:1003300001000100010001000100000001000100B6
:1003400001000100010001000100010001000100A5
:100350000100010001000100010001000100010095
:100360000100010001000100010001000100010085
:100370000100010000000100010001000000010077
:100380000000010001000100000001000000010068
:1003900000000000330210000000010029005F008F
:1003A0005C00590027020100560460005D005A00FD
:1003B00027020100340261005E005B00360201008A
:1003C000540055005600570058000100010001007C
:1003D00036020100010000000000000000000000E3
:1003E000000000000000000000000000000000000D
:1003F00000000000000000000000000000000000FD
:1004000000000000000000000000000000000000EC
:1004100000000000000000000000000000000000DC
:1004200000000000000000000000000000000000CC
:1004300000000000000000000000000000000000BC
:1004400000000000000000000000000000000000AC
:10045000000000000000000000000000000000009C
:10046000000000000000000000000000000000008C
:10047000000000000000000000000000000000007C
:100480000100010001000100010000000100010065
:100490000100010001000100010001000100010054
:1004A000010001000100F500010001000100010050
:1004B00001000100F4000100010001000100010041
:1004C0000100010000000100010001000000010026
:1004D0000000010001000100000001000000010017
:1004E0000100010001000100000001000100F9000D
:1004F000F2000100010001000100F000F100010024
:10050000010001000100FA00F300010001000100F8
:1005100001000100010001000100010001000100D3
:1005200001000100010000000000000000000000C8
:100530000000000000000000000000007E0F00D45A
:10054000FFFFFFC70000007800000000000000006F
:100550002A2B28000000000000000000000000001E
:1005600000000029000000002C1E34202122243429
:100570002627252E362D3738271E1F2021222324FB
:1005800025263333362E37381F0405060708090A97
:100590000B0C0D0E0F101112131415161718191A33
:1005A0001B1C1D2F3130232D350405060708090AB1
:1005B0000B0C0D0E0F101112131415161718191A13
:1005C0001B1C1D2F3130354C51394B206973207461
:1005D00068652062657374207468696E672065764B
:1005E0006572210000010101010101010101020206
:1005F00002020202020202030303030303030304D1
:10060000040404040404050505050506060606069B
:10061000070707070708080808090909090A0A0A55
:100620000B0B0B0C0C0C0D0D0D0E0E0E0F0F0F10F7
:100630001011111112121313141415151616171781
:10064000181819191A1A1B1B1C1D1D1E1E1F2020ED
:10065000212222232424252626272829292A2B2C37
:100660002D2D2E2F30313232333435363738393A5A
:100670003B3C3D3E3F404142434445464748494A52
:100680004C4D4E4F50515354555658595A5B5D5E20
:100690005F616264656668696B6C6D6F70727375BB
:1006A00077787A7B7D7E8082838587888A8C8E8F1F
:1006B00091939596989A9C9EA0A2A3A5A7A9ABAD4D
:1006C000AFB1B3B5B7BABCBEC0C2C4C6C9CBCDCF3B
:1006D000D1D4D6D8DBDDDFE2E4E7E9EBEEF0F3F5E9
:1006E000F8FAFDFF0A00000000000306B20008004F
:1006F00001000000A800080002000200A000140091
:10070000030057494E55534200000000000000000E
:1007100000008400040007002A0044006500760001
:1007200069006300650049006E0074006500720096
:100730006600610063006500470055004900440001
:100740007300000050007B00390044004200370075
:1007500046003100460044002D00370045003700B8
:1007600041002D0034003000300038002D003900E9
:100770003300360042002D003600420041003600B2
:10078000430031003900410033003000380063007D
:100790007D00000000001B0301636F6E66696775D2
:1007A00072652E6572676F646F782D657A2E636F40
:1007B0006D0005010902A10185020901A1000509D9
:1007C000190129051500250195057501810295017D
:1007D000750381010501093009311581257F9502D5
:1007E0007508810609381581257F950175088106F0
:1007F000050C0A38021581257F950175088106C010
:10080000C005010980A10185031A81002A83001611
:100810000100260300950175108100C0050C090137
:10082000A10185041A01002A9C02160100269C02DF
:10083000950175108100C005010906A10185050516
:100840000719E029E71500250195087501810205C2
:1008500007190029EF1500250195F07501810205A2
:1008600008190129059505750191029501750391F6
:1008700001C005010906A101050719E029E71500D6
:10088000250195087501810295017508810105070B
:10089000190029FF150026FF00950675088100053F
:1008A00008190129059505750191029501750391B6
:1008B00001C009025200030100A0FA09040000016E
:1008C00003010100092111010001224000070581F7
:1008D0000308000A090401000103000000092111B6
:1008E00001000122C0000705820320000A0904025A
:1008F0000002FF0000000705830340000507050410
:10090000034000051201100200000008EDFE07136D
:10091000010001020301040330000000160345003A
:10092000720067006F0064006F00780020004500CF
:100930005A00000008035A0053004100000004035D
:100940000904050F3900021C100500DF60DDD8899D
:1009500045C74C9CD2659D9E648A9F00000306B2E9
:100960000045001810050038B60834A909A0478BC7
:10097000FDA0768815B6650001420000047F3F1F88
:10098000643214643214783C1E1E140A05FFAA7FD8
:1009900055402223252628292A2C2D2F3032333565
:1009A00036383A3B3D3E4042434547494A4C4E501B
:1009B00051535557595A5C5E6062646668696B6D45
:1009C0006F71737577797B7D7F81838587898A8C49
:1009D0008E90929496989A9C9E9FA1A3A5A7A8AA50
:1009E000ACAEAFB1B3B4B6B8B9BBBCBEBFC1C2C385
:1009F000C5C6C7C9CACBCCCDCED0D1D2D2D3D4D51F
:100A0000D6D7D7D8D9D9DADADBDBDBDCDCDCDCDC47
:100A1000DDDDDDDDDCDCDCDCDCDBDBDBDADAD9D91F
:100A2000D8D7D7D6D5D4D3D2D2D1D0CECDCCCBCAAD
:100A3000C9C7C6C5C3C2C1BFBEBCBBB9B8B6B4B3D3
:100A4000B1AFAEACAAA8A7A5A3A19F9E9C9A989669
:100A50009492908E8C8A89878583817F7D7B79773C
:100A60007573716F6D6B6968666462605E5C5A591C
:100A700057555351504E4C4A4947454342403E3DDD
:100A80003B3A3836353332302F2D2C2A292826256B
:100A9000232211241FBECFEFDAE0DEBFCDBF12E06C
:100AA000A0E0B1E0E0E9FBE502C005900D92AC32B8
:100AB000B107D9F723E0ACE2B2E001C01D92A43B3C
:100AC000B207E1F70E945C1B0C94C62D0C94000049
:100AD0004F925F926F927F928F929F92AF92BF924E
:100AE000CF92DF92EF92FF920F931F93CF93DF93FA
:100AF00000D000D01F92CDB7DEB7FC010081F1809D
:100B000083819481892B39F01FEFF11206C091E0A7
:100B10000F3F19F403C091E001C090E090FF02C0C4
:100B20000C94990D6F0185E0DE01119601900D92F4
:100B30008A95E1F7F601228189819A81222349F081
:100B40000E940F26182F682F89819A810E9489267A
:100B500003C00E945C26182F24E5129FF001112487
:100B600036E0F39EE00DF11D1124E00FF11DEE0FB4
:100B7000FF1FE85CFE4F05911491F6018281093058
:100B8000FDE51F0709F040C0882309F4D2C7909102
:100B9000710281E0890F8770987F853020F4892B5E
:100BA0008093710202C090937102809171028770EC
:100BB0000FEF809FC0011124959587959595879596
:100BC0009927909389008093880090938B0080935D
:100BD0008A0090938D0080938C0040917102509117
:100BE000720260917302709174028FE090E00E9433
:100BF0002E2C60914B0370914C0380914D0390918A
:100C00004E030E94DF1112C00A302DE5120751F089
:100C10000B303DE5130779F009308DE5180709F031
:100C2000F9C004C0882309F484C7DDC0F6018281BD
:100C30008111A0C07EC7882309F4ECC038ECE32EF4
:100C400035E0F32E4AE0642EF7012491222309F4C3
:100C5000E1C0213009F04BC031968491813051F4CC
:100C6000F2E0EF0EF11CF701B4908B2D0E945C2294
:100C70008B2D11C0823041F4F2E0EF0EF11CF70130
:100C800084910E945C2272C0833041F4F2E0EF0E46
:100C9000F11CF70184910E94F52168C0843009F0AD
:100CA00064C0F2E0EF0EF11CF701249180E090E0C7
:100CB00030E0205331092A30310570F4689EA001DC
:100CC000699E500D1124C901840F951FFFEFEF1A83
:100CD000FF0AF7012491ECCF009709F447C0EFE930
:100CE000FFE03197F1F700C000000197F5CFE22F48
:100CF000F0E0E85BFA4F7490822F86958695869592
:100D000090E0FC01E85CFA4F84902770912C022E51
:100D100002C0959487940A94E2F7F1E08F22992417
:100D2000FC01E85DFA4FA490B12C02C0B594A794E1
:100D30002A95E2F721E0A222BB248114910419F044
:100D400081EE0E945C22A114B10419F086EE0E948B
:100D50005C22872D0E94E922AB2819F086EE0E94C2
:100D6000F521892819F081EE96CF7F013FEFE31A34
:100D7000F30A6ACF61E081E00F900F900F900F901F
:100D80000F90DF91CF911F910F91FF90EF90DF9027
:100D9000CF90BF90AF909F908F907F906F905F901B
:100DA0004F900C941E0FF6019281992309F45AC2B8
:100DB00010922D020230FCE51F0708F013C180914C
:100DC00052030631FCE51F0709F43CC28272F801A8
:100DD000E25CFC45E431F10508F469C20E3D2CE506
:100DE000120709F017C30F900F900F900F900F90FC
:100DF000DF91CF911F910F91FF90EF90DF90CF90F7
:100E0000BF90AF909F908F907F906F905F904F902A
:100E10000C944F25F6018281882319F1033E8CE55D
:100E20001807C1F050F4013EECE51E0781F0023EC8
:100E3000FCE51F07B1F481E010C0043E2CE5120769
:100E400059F0053E3CE5130761F484E006C01092BA
:100E50006D0205C082E001C083E080936D020E94B4
:100E60002B1017FF71C0F6018281882309F46CC032
:100E70008091520380932C021092520380916D0254
:100E8000813071F048F08230C1F08430E1F486EEB8
:100E90000E94E92288E115C082EE0E945C2213C004
:100EA00083E00E94D62188E10E945C2288E10E94B2
:100EB000F52183E00E94CB2106C082EE0E945C22D5
:100EC00087E50E94E9228FE39CE90197F1F700C0D2
:100ED00000005801E894B7F82CE0E22EF12CC5018F
:100EE0000E2C02C0969587950A94E2F7282F2F7052
:100EF00041F0822F90E02A3010F44D9604C00697FE
:100F000002C087E290E00E94E92294E0E91AF10829
:100F1000ECEFEE16EFEFFE0611F780916D028130D7
:100F200039F040F0823031F0843051F488E206C06C
:100F30008CE204C082EE0E94F52102C00E94E922E8
:100F400080912C0280935203033FFCE51F07D9F1E7
:100F500088F4083D3CE51307D9F0093D8CE51807F6
:100F6000F1F1073D9CE5190709F01DCF26E241EE9E
:100F700061EE11C0053FECE51E0769F140F1063F47
:100F80002CE5120709F00FCF27E245EE66EE03C00D
:100F900027E245EE65EEC6010F900F900F900F907F
:100FA0000F90DF91CF911F910F91FF90EF90DF9005
:100FB000CF90BF90AF909F908F907F906F905F90F9
:100FC0004F900C94C82A26E241EE60EEE4CF27E26F
:100FD00045EE64EEE0CF26E241EE62EEDCCF28E2A1
:100FE00041E0D8CF06312CE5120738F098012A5F8E
:100FF0003C452730310508F0E2CE0E943E25909313
:101000008402809383020F303CE5130709F4CFC0BC
:1010100008F042C008309CE5190709F4A8C0F0F4B4
:101020000430FCE51F0709F490C068F402303CE589
:10103000130709F486C003301C4509F0DFC0809116
:1010400083028260D9C006309CE5190709F487C085
:1010500008F089C0809183028860CEC00B30FCE527
:101060001F0709F495C068F409303CE5130709F43B
:1010700082C00A301C4509F0C1C08091830288609B
:1010800080C00D309CE5190709F486C008F087C0C0
:10109000809183028D7FB0C00A3FFCE51F0709F4F1
:1010A00057C050F502313CE5130709F488C068F4D5
:1010B00000319CE5190709F47EC001311C4509F097
:1010C0009DC0809183028F7B97C00431FCE51F0790
:1010D00009F487C008F479C005311C4509F08EC0B9
:1010E0008091830282FB222720F991E0922790FBD6
:1010F00082F990FB83F980C00D3F8CE5180709F455
:1011000052C058F40B3FECE51E0729F10C3F1C457B
:1011100009F074C08091840260C00F3F2CE5120773
:1011200009F458C080F101151D4509F067C0809190
:101130008402982F909591708E7F892B90FB81F976
:101140004DC080918302816057C08091830219C095
:10115000809184021BC08091840282603FC0809194
:101160008302806149C080918302806245C0809182
:101170008302806441C00E94B6218091830280680E
:101180003BC0846039C0809184028260816026C047
:10119000809183028E7F30C08091830219C080913C
:1011A0008302877F29C0809184028D7F17C0809140
:1011B00083028F7E21C0809183028F7D1DC00E949B
:1011C000B621809183028F7717C080918302877F39
:1011D0008B7F12C0809184028D7F8E7F80938402EA
:1011E0000DC00E94B6218091830287FB222720F93F
:1011F00091E0922790FB87F98093830260918302AC
:101200001091840284E090E00E941C2C612F81E206
:1012100090E00E941C2C0F900F900F900F900F9059
:10122000DF91CF911F910F91FF90EF90DF90CF90C2
:10123000BF90AF909F908F907F906F905F904F90F6
:101240000C94B6218A7A91E009F490E090932E02F2
:10125000882311F065E301C069E28CEB92E00E9403
:1012600009250EC006311C4509F021C180912E02CE
:10127000882309F45CC465E38CEB92E00E94E124CE
:101280000F900F900F900F900F90DF91CF911F91C3
:101290000F91FF90EF90DF90CF90BF90AF909F9015
:1012A0008F907F906F905F904F900C94C925EA5A71
:1012B000FF4F0C94862C8091360280FF2FC08E7FCA
:1012C0008093360260913602709137028091380225
:1012D000909139020E94EA0E10929E029FEFE0E781
:1012E000F2E09150E040F040E1F700C000000F90C4
:1012F0000F900F900F900F90DF91CF911F910F9152
:10130000FF90EF90DF90CF90BF90AF909F908F9025
:101310007F906F905F904F900C943D13816080930D
:10132000360261E0869528CD49E55FE062E67FE020
:101330002CC042E65FE069E57FE027C042E25EE064
:101340006BE27EE022C04BE25EE062E27EE01DC026
:101350004AE05EE066E17EE018C046E15EE06AE0F9
:101360007EE013C042EF5DE06EEF7DE00EC04EEF19
:101370005DE062EF7DE009C04CEF5EE06DE07FE094
:1013800004C04DE05FE06CEF7EE00F900F900F9097
:101390000F900F90DF91CF911F910F91FF90EF90E1
:1013A000DF90CF90BF90AF909F908F907F906F9085
:1013B0005F904F900C94D32965E082E011C068E003
:1013C00086E00EC06EE089E00BC064E18FE008C0EB
:1013D00067E185E105C061E088E1CECC62E289E1A8
:1013E0000F900F900F900F900F90DF91CF911F9162
:1013F0000F91FF90EF90DF90CF90BF90AF909F90B4
:101400008F907F906F905F904F900C94C12961E016
:1014100083E2B2CC08303DE5130709F441C0011561
:101420001C4509F044C00E94B6219FEFE4E3FCE0B4
:101430009150E040F040E1F700C00000F89481E0F6
:101440008093E00080E28093D8001092C9008FE181
:101450009EE40197F1F700C000001DBA10926800E9
:101460001CBC10BE1FBA10927A0010926E0010922F
:101470006F0010927100109272001092C9001092C9
:10148000BC0014B817B81AB81DB810BA1092BC0036
:1014900015B818B81BB81EB811BA0C94003F49C350
:1014A0009091B90281E089278093B90242C3F60185
:1014B00000811181992349F0C8010E940F26F82E5E
:1014C000682FC8010E94892604C0C8010E945C26BA
:1014D000F82EB8018F2D0E9431108C01B82EF60124
:1014E000E580E2949FE0E922F280F110109251032E
:1014F00080914F03877079F0FF2069F080E2800FC0
:10150000883048F082E00E94E62680914F03877081
:10151000AA24A3948111A12C912E92948FE0982259
:10152000892D90E08C30910508F0CFC2FC01E6597E
:10153000FF4F0C94862C812F807F1F70882311F021
:101540001295107FFF20B9F0112309F448C280E200
:10155000800F883010F0B11006C080915203182B14
:101560001093520305C080915103182B109351031F
:101570000E94C92534C2802F0E94F521112309F44D
:10158000A4C2005E1095083010F0B11006C0809122
:10159000520318231093520305C08091510318235E
:1015A000109351030E94C92590C2812F807F1F7024
:1015B000803211F01295107FBB2021F0F1E0BF16B0
:1015C000E1F028C0FF2081F080915303EE2051F01C
:1015D00001E0E01207C0182B181709F476C2109327
:1015E000530373C2812B10C0EE2021F021E0E216DC
:1015F00009F46BC20E94C3251FC0FF2041F031E0F7
:101600003E1508F462C2812F0E94EB215EC2E110F8
:101610005CC212C0FF2019F0EE20A9F3E0C1EE2059
:1016200059F0093309F0EDC18FEF97EEE3E08150F7
:101630009040E040E1F7E3C1812F0E94E02145C2E4
:10164000812F86958695837019F0813059F03DC2BF
:10165000FF2019F0C801937002C080E090E00E9462
:101660009F2939C2FF2019F0C801937002C080E0A1
:1016700090E00E9489292FC2FF20F9F0053F51F028
:10168000063F71F0043FA9F480912F02909130023F
:1016900081600BC080912F0290913002826005C062
:1016A00080912F0290913002846090933002809359
:1016B0002F02802F0E94DE231EC0053F51F0063FFF
:1016C00071F0043FA9F480912F02909130028E7F37
:1016D0000BC080912F02909130028D7F05C08091C8
:1016E0002F02909130028B7F9093300280932F02D3
:1016F000802F0E9417230E94A224EDC1812F8370A6
:1017000009F069C0F110E5C1902F929596959770F8
:10171000990F990F802F8F70482E512C612C712CAE
:10172000092E04C0440C551C661C771C0A94D2F781
:1017300004FF12C04FE050E060E070E004C0440FCE
:10174000551F661F771F9A95D2F7DB01CA01809556
:101750009095A095B09503C080E090E0DC011695CF
:101760001695412F4370423019F1C8F4009154038B
:10177000109155032091560330915703413059F091
:1017800084299529A629B729BC01CD01602371239D
:10179000822393230AC0402A512A622A732ABC0159
:1017A000CD0164297529862997290E94202791C196
:1017B00084299529A629B72900915403109155032E
:1017C0002091560330915703BC01CD01602771274A
:1017D00082279327EACFFF2019F0812F817001C063
:1017E0008695882309F475C1902F929596959770E8
:1017F000990F990F802F8F70482E512C612C712CCE
:10180000092E04C0440C551C661C771C0A94D2F7A0
:1018100004FF12C04FE050E060E070E004C0440FED
:10182000551F661F771F9A95D2F7DB01CA01809575
:101830009095A095B09503C080E090E0DC011695EE
:101840001695412F43704230D9F068F500914B0353
:1018500010914C0320914D0330914E03413059F0CB
:1018600084299529A629B729BC01CD0160237123BC
:10187000822393231EC0402A512A622A732A13C04E
:1018800084299529A629B72900914B0310914C036F
:1018900020914D0330914E03BC01CD01602771278B
:1018A0008227932706C0BC01CD01642975298629AA
:1018B00097290E94B5260DC11F70FF2039F0812F96
:1018C0000E94FF26802F0E94EB2103C1802F0E94DF
:1018D000E021812F0E94C126FCC0802FF2EFBF16AD
:1018E00009F43EC0FB1538F020EFB21661F031EF7D
:1018F000B31689F16FC093EFB916C9F1E4EFBE16C4
:1019000009F44CC067C0FF2009F1E110DEC01F716F
:1019100081E090E0A0E0B0E0AC01BD0104C0440F64
:10192000551F661F771F1A95D2F780914B03909130
:101930004C03A0914D03B0914E038A019B010827EF
:1019400019272A273B27C901B80125C021E02E15F8
:1019500008F4BBC0DCCFFF2029F0812F8F712CC091
:10196000FF20D9F3812F8F710E94C126AEC0FF20C6
:1019700079F01F7181E090E0A0E0B0E0BC01CD0102
:1019800004C0660F771F881F991F1A95D2F703C0EE
:1019900060E070E0CB010E94B52697C0FF2079F08F
:1019A0001F71812F0E94FF2638E0139FC001112470
:1019B000836080934F03812F0E94FF2686C081E0C1
:1019C0000E94E62681E08E1508F07FC082E00E942A
:1019D000E6267BC0FF2039F0EE2009F4BECF802F31
:1019E0000E945C2272C0EE2009F4BCCF893349F416
:1019F0009FEFE7EEF3E09150E040F040E1F700C0E8
:101A00000000802F0E94F52160C012EFB116E1F0B6
:101A10001B1538F020EFB21669F031EFB31611F153
:101A20002BC084EFB816C9F0B81660F095EFB91660
:101A300071F022C0FF2009F44EC09091BB0281E0FA
:101A4000892708C081E0F826F092BB0244C0F1105B
:101A500042C081E08093BB023EC0F1103CC01092B6
:101A6000BB0239C0FF2029F08091BA02882329F3F4
:101A700029C0EE2011F32FC08091BA02EE20C1F0F0
:101A8000882341F09091BB0281E089278093BB02BB
:101A90001092BA02802FFF2019F00E945C221BC016
:101AA0000E94F52186E0F60111928A95E9F713C0AC
:101AB000882389F0F1100FC09091BB0281E0892743
:101AC0008093BB021092BA0206C088EF890D843061
:101AD00010F40E94B529AA2061F180914F0380FD86
:101AE00028C0F60112828595859585950E94FF266E
:101AF000C6010E94680580914F038595859585955F
:101B00000F900F900F900F900F90DF91CF911F913A
:101B10000F91FF90EF90DF90CF90BF90AF909F908C
:101B20008F907F906F905F904F900C94C12669E2E8
:101B3000A3CB0F900F900F900F900F90DF91CF914C
:101B40001F910F91FF90EF90DF90CF90BF90AF90DB
:101B50009F908F907F906F905F904F90089590919D
:101B6000830292FF0DC0282F2871283019F4877F37
:101B7000846006C0282F2471243011F48B7F886084
:101B800093FF0DC0282F2871283119F4877E8461B6
:101B900006C0282F2471243111F48B7E8861209196
:101BA000840220FF0DC0382F3871383019F4877F38
:101BB000816006C0382F3171313011F48E7F88601A
:101BC00021FF0DC0282F2871283119F4877E8161EB
:101BD00006C0282F2171213111F48E7E886194FD79
:101BE000877E0895E6E3F2E043812CE0421B08F48F
:101BF00040E021E0628181810C942C2AE6E3F2E04E
:101C000043812CE0420F08F44FEF21E06281818193
:101C10000C942C2AE6E3F2E062812FEF621B08F4B9
:101C200060E021E0438181810C942C2AE6E3F2E01C
:101C300062812FEF620F08F46FEF21E04381818111
:101C40000C942C2AE6E3F2E0818121E04381628159
:101C50008C500C942C2AE6E3F2E0818121E0438150
:101C60006281845F0C942C2ACF93E82F873080F513
:101C70008091070190910801892B09F047C0CE2F70
:101C800064E670E080E40E94582B909308018093F2
:101C90000701892BD1F464E670E082E10E94AF2B4A
:101CA0009093080180930701892B79F481E090E0FB
:101CB00001C0880FCA95EAF764E670E080950E943B
:101CC000AF2B9093080180930701CF910C94042CC3
:101CD00090E0FC013797E730F105C0F4EA58FF4F78
:101CE0000C94862C209A289811C0219A29980EC00D
:101CF000229A2A980BC0239A2B9808C0529A5A9875
:101D000005C0539A5B9802C03E9A4698CF910895B9
:101D1000CF93873008F03FC0809107019091080170
:101D2000892B09F041C064E670E080E40E94582BE2
:101D30009093080180930701892B11F0C0E027C020
:101D400064E670E083E10E94AF2B909308018093DA
:101D50000701892B99F764E670E081E40E94582B13
:101D60009093080180930701892B41F784E690E066
:101D70000E94DF2B97FF05C0909308018093070115
:101D8000DDCFC82FC09510920801109207010E9464
:101D9000042C8C2F0AC09FB18FB1807F86958695C9
:101DA0009370892B809501C080E0CF910895809138
:101DB0003602282F269530E02115310519F481705F
:101DC000826005C02532310524F0817088648093DB
:101DD00036020895CF92DF92EF92FF926B017C0161
:101DE0000E94D70EB701A60188E090E0FF90EF9027
:101DF000DF90CF900C942E2C80913A02882319F01A
:101E0000815080933A02609136027091370280913E
:101E10003802909139020C94EA0E80913A02833094
:101E200018F48F5F80933A02609136027091370206
:101E300080913802909139020C94EA0E909136020A
:101E400090FF36C09170811102C0926006C0853249
:101E500010F0986402C0880F982B90933602662386
:101E600051F0609136027091370280913802909162
:101E700039020E94EA0E60913602669570E04BE0EE
:101E800050E083E191E00E94B92D892B19F0109266
:101E90009E0202C00E943C2B81E080939A0220E0C7
:101EA0004091390260913802809137020C942C2ABB
:101EB0000895809136028695815009F484E261E0AC
:101EC0000C941E0F8091360286958F5F853208F044
:101ED00081E061E00C941E0FE6E3F2E083E0808392
:101EE00011828FEF8283838314826081718182816A
:101EF00093810C94EA0EBF92CF92DF92EF92FF9201
:101F00000F931F93CF93DF93E82EF62EE901E42F72
:101F1000F0E0611106C0EC51FA4F8491B82EE82F21
:101F200071C0262F30E0EC51FA4FE491FE2FCE2EF7
:101F3000D12C46E0849FC00111240FEF10E0B801BE
:101F40000E945E2C4BEA4603C001479F900D11246E
:101F50008E0D911D8E0D911D982F990F890FD8010F
:101F6000A21BB30BAC9DA001AD9D500DBC9D500DAF
:101F70001124B52EF89ED0011124AB2FBB27780178
:101F8000EA1AFB0AEC9CD001ED9CB00DFC9CB00D54
:101F900011247801E81AF108E29EC001E39E900D39
:101FA000F29E900D1124892F9927081B190B0C9D67
:101FB00090010D9D300D1C9D300D1124832F62303A
:101FC000710591F048F461157105E1F0613071051A
:101FD000B9F48E2FEB2F16C06430710569F040F014
:101FE0006630710579F00CC08E2FE52FB32E0AC034
:101FF000E52FBF2E8B2F06C0852FBE2EE32F02C0EC
:10200000852FBB2EE9838883BA821B82DF91CF9113
:102010001F910F91FF90EF90DF90CF90BF900895A8
:10202000CF93DF9300D000D0CDB7DEB790913602CA
:1020300090FF0AC09E012F5F3F4F0E947B0F4B8194
:1020400069818A810E94D9290F900F900F900F907B
:10205000DF91CF91089560916D028CE090E00C9437
:102060001C2CCF93DF9324E5829FC0011124FC0137
:1020700046E0749FE00DF11D1124E60FF11DEE0FF7
:10208000FF1FE85CFE4FC591D491CE01C238D10547
:1020900069F1B0F4C133D10509F475C048F4C9320F
:1020A000D10509F469C0CA32D10509F473C085C0ED
:1020B000C533D10509F459C0C933D105B9F07DC084
:1020C000C33ED10571F138F4C03ED105B1F0C23E36
:1020D000D10511F172C0C63ED105B9F1C73ED10597
:1020E000C9F1C43ED10509F068C024C02091830223
:1020F00020FD5DC021FD5BC060C02091830220FDFA
:1021000050C02091840220FF57C18091830284FD3A
:1021100051C183EE90E050C12091830222FF4CC157
:10212000F4CF8091830282FD3FC08091840280FDC4
:102130003EC0EBCF2091840221FF3EC180918302FB
:1021400084FD38C187EE90E037C12091830223FFE0
:1021500033C1F4CF8091830283FD2CC0809184022F
:1021600081FFECCF84EE90E027C12091830225FF10
:1021700023C189E290E020C12091830225FF1CC188
:1021800085E390E019C12091830226FF15C18AE200
:1021900090E012C12091830226FF0EC181E390E0FE
:1021A0000BC189E390E008C182EE90E005C180EEAA
:1021B00090E002C186EE90E0FFC0C11552E5D50760
:1021C00008F075C0C11521E5D20728F09C2F88279B
:1021D000816F906AF1C0C83ED10570F5C03ED1054F
:1021E00008F0EAC0C83AD105B8F4C53AD10550F0B4
:1021F0008C2F855AC82FD0E0C35DDE4F888190E0D8
:102200009064DAC0C130D10509F4D6C008F4D2C058
:10221000249708F4CFC0D0C0CF3BD10508F0CAC086
:102220008C2F885AC82FD0E0CC0FDD1FC05DDE4F49
:10223000888199819464C0C0C11540E2D40760F4DC
:10224000C11551E0D50708F0B7C0C03FD10508F46B
:10225000B1C0CE019065B0C0C11580E4D80708F4C4
:10226000A9C0C11520E5D20720F4CE019F70906A65
:10227000A3C0CE01F4E096958795FA95E1F7282F53
:1022800023703C2F337081E090E002C0880F991FCB
:102290003A95E2F79C68922B2C2F2F702695269565
:1022A00050E2259F90011124822B932B85C0C115EC
:1022B00046E5D40708F03FC0C11555E5D50748F0FD
:1022C0008C2F0E94AF0D8F7190E0982F882790621D
:1022D00073C0C11584E5D80728F09C2F8827846F28
:1022E000906A6AC09E01237033279C2F969596951D
:1022F000C115D34580F441E050E002C0440F551FA2
:102300002A95E2F780E2989F90011124CA01822B5E
:10231000932B9C6851C041E050E002C0440F551F10
:102320002A95E2F780E2989F90011124CA01822B3E
:10233000932B9A6841C0C1155AE5D50778F5C115A8
:1023400089E5D80710F18C2F8F700E94AF0D9E0188
:1023500094E0369527959A95E1F72F7030E0322F6B
:1023600022273069A901482B0EC090568115904252
:1023700008F58D2F8F710E94AF0D9E0133273062BB
:102380008F71A901582BCA0117C0C11528E5D207C2
:1023900088F09C2F8827806F906A0EC0C1154BE58E
:1023A000D40740F0CE01C1155CE5D507F0F69927BA
:1023B000906602C080E090E0DF91CF910895CF92C7
:1023C000DF92EF92FF920F931F936C01EE24FF2494
:1023D000C114D104E104F10411F0E0E103C06B0188
:1023E0007C01E0E033272F2D1E2D0D2D0115110549
:1023F0002105310519F0E85F68017901970186012F
:10240000F4E03695279517950795FA95D1F70115BC
:1024100011052105310519F0EC5F6801790197017B
:10242000860152E036952795179507955A95D1F76D
:10243000011511052105310519F0EE5F68017901DB
:10244000970186013695279517950795012B022B45
:10245000032B09F0EF5F56985E9825982D982698E3
:102460002E9827982F980E2F10E0F8013197E7301B
:10247000F105A8F4E358FF4F0C94862C259A2D9A69
:102480000EC0259A2D9A269A2E9A09C0259A2D9A21
:1024900004C0259A2D9A269A2E9A279A2F9A1F9130
:1024A0000F91FF90EF90DF90CF90089580E290E041
:1024B00090930801809307018091340281110EC02E
:1024C0000E94522B81E0809334022FEF83ED90E342
:1024D000215080409040E1F700C0000064E670E0C9
:1024E00080E40E94582B9093080180930701892B68
:1024F00009F04EC064E670E080E00E94AF2B90933C
:10250000080180930701892B09F042C064E670E05E
:1025100080E00E94AF2B9093080180930701892BE4
:10252000B9F564E670E08FE30E94AF2B9093080149
:1025300080930701892B61F50E94042C64E670E00A
:1025400080E40E94582B9093080180930701892B07
:10255000F9F464E670E08CE00E94AF2B90930801E0
:1025600080930701892BA1F464E670E080E00E946B
:10257000AF2B9093080180930701892B49F464E6FF
:1025800070E08FE30E94AF2B9093080180930701C6
:102590000E94042C809107010895CF93DF935698F1
:1025A0005E9825982D9826982E9827982F98C8E8F9
:1025B000D0E08FEF90E099838883AAE8B0E011968D
:1025C0009C938E93ECE8F0E091838083259A2D9A7A
:1025D0002FEF80E792E0215080409040E1F700C06B
:1025E0000000269A2E9A2FEF80E792E0215080403B
:1025F0009040E1F700C00000279A2F9A2FEF80E764
:1026000092E0215080409040E1F700C00000259802
:102610002D982FEF80E792E0215080409040E1F725
:1026200000C0000026982E982FEF80E792E02150FE
:1026300080409040E1F700C0000027982F988091DB
:10264000710287702FEF829FC001112495958795A5
:102650009595879599279983888311969C938E9356
:102660009183808356985E9825982D9826982E9869
:1026700027982F98DF91CF910895EF92FF920F93B3
:102680001F93CF93DF938091360280FF08C000E64E
:1026900013E08CE9E82E83E0F82EF8010CC0E0E6A8
:1026A000F3E01182108212821382349683E0EC39B7
:1026B000F807B9F7ECCF928120813181892F291752
:1026C00008F4822F381708F4832F8383381B318353
:1026D000281B2083981B92833496EE16FF0659F729
:1026E0000E94522B64E670E084E80E94582BC0E6FA
:1026F000D3E064E670E088810E94AF2B64E670E06E
:1027000089810E94AF2B64E670E08A810E94AF2B22
:1027100064E670E08B810E94AF2B2496EC16FD06D8
:1027200041F70E94042C579A8BB18F779BB1906828
:102730002FB7F894E016F10699F0F80131918F0166
:1027400048E09BB9000000C037FF8BB9330F000091
:1027500000C000C000C08BB900C04A9591F7EACF15
:102760002FBF8FE391E00197F1F700C00000DF91E8
:10277000CF911F910F91FF90EF90089584B1807FCA
:1027800084B985B1807F85B98AB1837F8AB98BB1DD
:10279000837F8BB93E984698089580B38C7080BB38
:1027A00081B3836F81BB0895BF92CF92DF92EF9286
:1027B000FF920F931F93CF93DF9380910701909126
:1027C0000801892B91F0809133028F5F809333024F
:1027D00081110BC00E94561290E0909308018093E3
:1027E0000701892B11F40E94CD1295E7E92E92E0A2
:1027F000F92E8701C0E0B12C87E0C82ECC0E8C2FBB
:102800000E94340E8C2D0E94340E8C2F0E94880E54
:10281000F8019081891721F08083DD24D39401C0D1
:10282000D12C8C2D0E94880EF8019781891719F000
:10283000878381E001C080E0D82ABD280E94BE13B2
:10284000CF5F0F5F1F4FC730B9F60E9496246AEF23
:1028500070E00E945E2C9C01682F809132028823D8
:10286000E9F110923202E0916B02F0916C02DF010B
:102870001E9690E07BEF0AEF10E080818B3FA9F07D
:10288000482F50E0681728F06901C41AD50AA6013C
:1028900006C0E801C41BD50BAE01420F531F4E31D9
:1028A000510514F0708301C091E03196EA17FB07DF
:1028B00021F790933202B11002C0911111C0109211
:1028C0003102E0916B02F0916C0290913202A9E822
:1028D000B2E0AF01425F5F4F80E007C0B110EFCFC1
:1028E000809131028111EBCF17C0E70129917E0160
:1028F0003C91321741F030813B3F21F460832C93AF
:1029000091E001C081E031961196E417F50769F76F
:1029100090933202809331028B2DDF91CF911F91E2
:102920000F91FF90EF90DF90CF90BF90089580912E
:10293000630287FF11C08091E80082FD05C080918D
:1029400061028111F8CF11C08091E8008B770BC034
:1029500080916102882349F08091E80080FFF8CFE0
:102960008091E8008E778093E8000895982F973043
:1029700068F59093E900981739F07091EC00209178
:10298000ED005091F00003C0242F762F50E021FD80
:1029900002C09F5FECCF3091EB003E7F3093EB00A5
:1029A0003091ED003D7F3093ED003091EB003160D0
:1029B0003093EB007093EC002093ED005093F00007
:1029C0002091EE0027FDE5CF80E008958F70809381
:1029D000E90081E008952091690230916A0226178A
:1029E000370748F06115710539F42091E8002E771A
:1029F0002093E80001C0B901FC0120E061157105D8
:102A000091F180916102882309F440C0853009F476
:102A10003FC08091E80083FD3DC08091E80082FDC9
:102A20002FC08091E80080FFE9CF2091F3008091D2
:102A3000F20090E0922B6115710559F088309105F4
:102A400040F424912093F100319661507109019670
:102A5000F2CF21E0089709F020E08091E8008E771E
:102A60008093E800CBCF2111CCCF0AC080916102C6
:102A7000882361F0853061F08091E80083FD0AC011
:102A80008091E80082FFF2CF80E0089582E008950F
:102A900083E0089581E008952091690230916A02EF
:102AA0002617370748F06115710539F42091E800C1
:102AB0002E772093E80001C0B901FC0120E06115E8
:102AC000710579F1809161028823F1F18530F1F18E
:102AD0008091E80083FD3CC08091E80082FD2EC01B
:102AE0008091E80080FFEBCF2091F3008091F2000D
:102AF00090E0922B6115710551F08830910538F402
:102B000021912093F100615071090196F3CF21E0EA
:102B1000089709F020E08091E8008E778093E80024
:102B2000CECF2111CFCF0AC080916102882361F0FE
:102B3000853061F08091E80083FD0AC08091E80053
:102B400082FFF2CF80E0089582E0089583E0089547
:102B500081E008951F93CF93DF93CDB7DEB7AA9797
:102B60000FB6F894DEBF0FBECDBFE3E6F2E0809172
:102B7000F100819322E0EB36F207C9F780916402FD
:102B80008930B9F150F4823009F4A5C0833009F4DA
:102B90005FC0813009F0EEC00CC08B3009F470C00A
:102BA00008F488C0823409F4AEC0853409F4C5C085
:102BB000E1C080916302813A09F0DCC08091E800B5
:102BC000877F8093E8008091670290916802892B4B
:102BD00021F460E28FE392E003C060E080E090E0E7
:102BE00070E00E944C158091E8008B778093E8009C
:102BF000C1C080916302813209F0BCC0809167023C
:102C000090916802029708F0B5C08091E800877F34
:102C10008093E8008091E80082FD05C08091610208
:102C20008111F8CFA7C02091F3008091F20090E0CD
:102C3000922B029729F48091F1008B7F813021F44F
:102C40008091F10080933E028091E8008B7758C01C
:102C500080916302813A09F08DC080916702909162
:102C60006802892B09F086C08091E800877F8093F5
:102C7000E8008091E80080FFFCCF809106013BC016
:102C800080916302813209F075C080916702909152
:102C90006802892B09F06EC08091E800877F8093DD
:102CA000E8000E94971480916502809306010E94BB
:102CB000B62160C080916302813209F05BC08091CF
:102CC000E800877F8093E8000E9497148091660255
:102CD00080933D024FC080916302813A09F04AC05F
:102CE0008091E800877F8093E8008091E80080FF72
:102CF000FCCF80913D028093F1008091E8008E77B7
:102D00008093E8002FC080916302803C99F5809108
:102D1000670290916802029741F580916502909157
:102D20006602892B11F58091E800877F8093E80087
:102D30006BE170E086E997E013C080916302803C0C
:102D4000C9F48091670290916802079771F48091AD
:102D5000E800877F8093E80062EB70E084EE96E005
:102D60000E94EB140E94971405C08091EB008062D2
:102D70008093EB008091E80083FFA4C180916302FF
:102D800090916402492F50E04A30510508F09AC1F1
:102D9000FA01EC57FF4F0C94862C803821F08238D2
:102DA00009F090C108C080915F0290916002992360
:102DB00089F082600FC0809167028F70873008F0C1
:102DC00081C18093E9008091EB0085FB882780F921
:102DD0001092E9009091E800977F9093E80080932B
:102DE000F1001092F10033C1282F2D7F09F06AC144
:102DF000882319F0823061F065C1809165028130CD
:102E000009F060C1933009F080E0809360022EC029
:102E10008091650281112AC0809167028F702FEF27
:102E2000280F263008F04EC18093E9002091EB0076
:102E300020FF1CC0933021F48091EB00806214C00D
:102E40009091EB0090619093EB0021E030E0A901BC
:102E500002C0440F551F8A95E2F74093EA00109292
:102E6000EA008091EB0088608093EB001092E9000B
:102E70008091E800877FEEC0811124C11091650226
:102E80001F778091E3008078812B8093E30080910D
:102E9000E800877F8093E8000E9497148091E80003
:102EA00080FFFCCF8091E30080688093E3001111E4
:102EB00002C082E001C083E08093610203C18058B8
:102EC000823008F0FFC080916502909166028C3DCF
:102ED00053E0950779F583E08A838AE289834FB7C7
:102EE000F894DE01139620E03EE051E2E32FF0E09B
:102EF00050935700E49120FF03C0E295EF703F5FCD
:102F0000EF708E2F90E0EA3010F0C79601C0C096A7
:102F10008D939D932F5F243149F74FBF8091E80037
:102F2000877F8093E8006AE270E0CE0101960E94FC
:102F30004C157BC04091670250916802292F3327BE
:102F40002330310511F168F42130310509F4C9C08D
:102F50002230310509F0B6C062E570E082EB98E0FE
:102F60005DC02132310509F43BC02232310509F43C
:102F700044C02F30310509F0A5C0E4E4F9E0E49144
:102F80006E2F70E082E499E045C099278130910569
:102F9000B9F070F082309105D9F0039709F092C032
:102FA000E6E1F9E0E4916E2F70E086E199E032C04D
:102FB000EEE3F9E0E4916E2F70E08EE399E02AC031
:102FC000E4E3F9E0E4916E2F70E084E399E022C03D
:102FD000ECE1F9E0E4916E2F70E08CE199E01AC029
:102FE0004115510509F482C04130510509F06AC00C
:102FF00069E070E08DED98E011C04115510509F4CC
:103000007AC04130510509F05DC060EC70E082EBA0
:1030100097E004C06115710509F454C02091E800DF
:10302000277F2093E8000E94EB148091E8008B77C3
:103030008093E80047C0803809F044C08091E800E0
:10304000877F8093E800809162028093F1008091F5
:10305000E8008E778093E8000E94971433C08111B6
:1030600031C080916502909166029927029754F5CC
:103070008091E800877F8093E800109165021093AB
:1030800062020E949714111106C08091E30087FD2F
:1030900002C081E001C084E08093610242E061EC03
:1030A00081E00E94B61442E261EC82E00E94B61414
:1030B00042E361EC83E00E94B61442E360EC84E0FA
:1030C0000E94B6148091E80083FF1AC08091E80046
:1030D000877F8093E8008091EB0080628093EB0013
:1030E0000FC062E170E084E099E098CF69E070E0A1
:1030F00084EC98E093CF60E470E082E798E08ECFB4
:10310000AA960FB6F894DEBF0FBECDBFDF91CF9168
:103110001F9108951F920F920FB60F9211242F93B3
:103120003F934F935F936F937F938F939F93AF934F
:10313000BF93CF93DF93EF93FF93C091E900CF70DC
:103140008091EC00D82FD17080FDD0E81092E9007A
:103150008091F000877F8093F00078940E94AA15F8
:103160001092E9008091F00088608093F000CD2BF0
:10317000CF70C093E900FF91EF91DF91CF91BF91A4
:10318000AF919F918F917F916F915F914F913F91FF
:103190002F910F900FBE0F901F901895E8EDF0E063
:1031A00080818E7F80831092E2001092DA0010926C
:1031B000E100A0EEB0E08C9181608C9380818F77EC
:1031C000808319BCA7EDB0E08C918E7F8C938081B9
:1031D0008F7E8083109235020895CF92DF92EF9216
:1031E000FF920F931F93CF93DF93C8EDD0E08881B8
:1031F0008F7E8883E7EDF0E080818160808384E0CA
:1032000082BF81E08093350288818E7F888302EEC1
:1032100010E0F80110821092DA0081EEC82ED12C55
:10322000F601108288818F778883888180688883FF
:1032300088818F7D888319BC10926102109262028E
:103240001092600210925F0290EEE92EF12CF701CD
:1032500080818B7F808388818160888342E060E009
:1032600080E00E94B614F60180818E7F8083F80191
:10327000808181608083808188608083F701808184
:103280008E7F8083888180618883DF91CF911F91B9
:103290000F91FF90EF90DF90CF9008951F920F92C3
:1032A0000FB60F9211242F933F934F935F936F9319
:1032B0007F938F939F93AF93BF93EF93FF938091EF
:1032C000E10082FF09C08091E20082FF05C0809189
:1032D000E1008B7F8093E1008091DA0080FF2AC0BB
:1032E0008091D80080FF26C08091DA008E7F809385
:1032F000DA008091D90080FF18C080E189BD82E1A9
:1033000089BD09B400FEFDCF81E080936102809108
:10331000350281110FC00E94CE180E94ED188091D5
:10332000E20084608093E20005C019BC1092610243
:10333000109235028091E10080FF17C08091E20079
:1033400080FF13C08091E2008E7F8093E200809125
:10335000E20080618093E2008091D80080628093D7
:10336000D80019BC85E0809361028091E10084FF60
:1033700043C08091E20084FF3FC080E189BD82E1CB
:1033800089BD09B400FEFDCF8091D8008F7D809368
:10339000D8008091E1008F7E8093E1008091E2006F
:1033A0008F7E8093E2008091E20081608093E20052
:1033B00080916202882311F084E007C08091E300CD
:1033C00087FD02C081E001C083E0809361020E941A
:1033D000B6210E94B52910923C0280913B028823BD
:1033E00049F08091360281608093360260E08695D4
:1033F0000E941E0F0E943C2B8091E10083FF27C09A
:103400008091E20083FF23C08091E100877F809359
:10341000E10082E080936102109262028091E100FB
:103420008E7F8093E1008091E2008E7F8093E200A6
:103430008091E20080618093E20042E060E080E001
:103440000E94B6148091F00088608093F000FF9194
:10345000EF91BF91AF919F918F917F916F915F910C
:103460004F913F912F910F900FBE0F901F90189585
:103470002091E4003091E50095E64091EC00842F26
:10348000817040FF23C08091E80080FD1DC08091C5
:103490006102882399F0853099F08091EB0085FDD9
:1034A00011C04091E4005091E5002417350729F33D
:1034B000915011F09A01E1CF84E0089582E00895DF
:1034C00083E0089581E0089580E008954091E80048
:1034D00042FFDDCF0895EF92FF920F931F93CF939A
:1034E000DF937C018B010E94381A811119C0E7011A
:1034F00001151105A1F08091E80085FD0AC08091B9
:10350000E8008E778093E8000E94381A882381F3C0
:1035100007C089918093F10001501109E9CF80E043
:10352000DF91CF911F910F91FF90EF9008958091BF
:103530006102843011F081E0089582E00895CF9314
:10354000DF9300D01F92CDB7DEB790916102943027
:1035500019F589837B836A8382E08093E9008FEF8A
:103560009091E800815095FD06C095ED9A95F1F790
:1035700000008111F5CF8091E80085FF0DC040E08B
:1035800050E063E070E0CE0101960E946B1A8091DA
:10359000E8008E778093E8000F900F900F90DF91F6
:1035A000CF910895CF93DF93EC010E94971A823058
:1035B00011F0843031F4BE0184E0DF91CF910C949E
:1035C0009F1ADF91CF910895BC016058710983E083
:1035D0000C949F1ACF93DF93EC010E94971A8230CC
:1035E00011F08430F9F482E08093E9008FEF90913C
:1035F000E800815095FD06C095ED9A95F1F7000021
:103600008111F5CF8091E80085FF0CC040E050E0CB
:1036100066E070E0CE010E946B1A8091E8008E7720
:103620008093E800DF91CF910895CF93DF93EC0171
:103630000E94971A823011F08430D9F580910601EA
:10364000882339F08091830287FF03C060E282E023
:1036500002C068E081E08093E9008FEF9091E8007C
:10366000815095FD06C095ED9A95F1F70000811106
:10367000F5CF8091E80085FF1CC080910601811183
:1036800005C040E050E068E070E003C070E040E05A
:1036900050E0CE010E946B1A8091E8008E778093F3
:1036A000E80080E2FE01AFE3B2E001900D928A955E
:1036B000E1F7DF91CF910895CF93DF93CDB7DEB7D8
:1036C000CA55D1090FB6F894DEBF0FBECDBF84B77F
:1036D000877F84BF0FB6F894A895809160008861B9
:1036E00080936000109260000FBE90E080E80FB6FB
:1036F000F89480936100909361000FBE85B7806855
:1037000085BF85B7806885BF0E94CE180E94ED18DE
:103710008091E20084608093E2007894809161025D
:103720008823A1F01091E9001F709091EC00892F7F
:10373000817090FD80E8182B1092E9008091E800DC
:1037400083FD0E94AA151F701093E90082E084BDDA
:1037500093E095BD9AEF97BD80936E000E9456123C
:1037600090E090930801809307010E94BE130E948D
:10377000CD13A5E7B2E0E9E8F2E011921D9222E054
:10378000E739F207D1F78EE090E00E94982C809301
:103790006B0290936C02FC010E962BEF2193E817BD
:1037A000F907E1F780E090E00E94162C8F3E9E4FD3
:1037B00011F00E944F258CE090E00E94082C90E0D0
:1037C000A0E0B0E080936D0290936E02A0936F0230
:1037D000B093700289EA8093800089E08093810031
:1037E00024982C983F988AB18F7C8AB96E98479A12
:1037F0008BB180638BB9769A8FE090E00E94102C99
:1038000060937102709372028093730290937402BA
:1038100067704FEF649FB00111247595679575959A
:1038200067957727709389006093880070938B0069
:1038300060938A0070938D0060938C000E94CD127B
:1038400080E090E00E94162C8F3E9E4F11F00E9467
:103850004F2582E090E00E94082C8093A9020E94EC
:103860003E25909384028093830283E090E00E943F
:10387000082C682F70E080E090E00E942027809163
:103880008502811136C080E090E00E94162C8F3EA8
:103890009E4F21F00E944F250E946C0F88E090E01F
:1038A0000E94102C60933602709337028093380286
:1038B000909339026E7F71F40E946C0F88E090E063
:1038C0000E94102C60933602709337028093380266
:1038D000909339020E94D70E10929E028091360278
:1038E00080FF04C060E086950E941E0F81E08093F7
:1038F000850289E091E09093870280938602CC2430
:10390000C394DD24D394A1E4EA2EF12CEC0EFD1E29
:1039100022E0E20EF11C80916102853009F068C05E
:1039200080916102843009F440C01092880220E442
:1039300088E190E00FB6F894A895809360000FBEE0
:103940002093600010929E0280913C02811116C06B
:10395000D0923C0280913602982F917090933B0256
:103960008E7F809336023FEF40E782E03150404047
:103970008040E1F700C000000E943D1383B7817FC3
:10398000846083BF83B7816083BF7894889583B751
:103990008E7F83BF0FB6F894A895809160008861F0
:1039A00080936000109260000FBE809160028823B7
:1039B00009F4B1CF0E94561290E0909308018093D1
:1039C00007010E94BE130E94CD13E9E8F2E01192B4
:1039D00092E0E739F907D9F70E94D413E9E8F2E059
:1039E0008191811121C222E0E739F207C9F793CF13
:1039F0000E94D4130AEA12E0F9E88F2EF2E09F2E1B
:103A0000A12C712CF40141904F01F80150805424F5
:103A1000B9F1612CBB24B394852D8B2161F16296A1
:103A20006FAE629763967FAE639791E0842D8B2192
:103A300009F490E064969FAF64970E949624816099
:103A4000782F66969FAF8EAF669762964FAD62975E
:103A500063965FAD639764966FAD649766968FAD1E
:103A600066970E94AE28F80180818B258083A394FD
:103A7000F3E0FA1568F16394BB0C26E06212CCCF38
:103A800073940F5F1F4F3EE07312BCCFA11020C094
:103A90008FEF67968FAF679768968FAF6897699635
:103AA0001FAE69970E9496248160782F6B969FAF16
:103AB0008EAF6B9767964FAD679768965FAD6897C7
:103AC00069966FAD69976B968FAD6B970E94AE2824
:103AD00080919E02882309F49AC080919D02E09112
:103AE0003602E695E81BE0939902823059F4F0E043
:103AF000E757F64FE4910E2F10E0EAE9AE2EE8E228
:103B0000BE2E59C0863059F4F0E0EA57F64FE491E2
:103B10000E2F10E07AE8A72E78E2B72E4CC089303D
:103B200061F4E695F0E0ED57F64FE4910E2F10E0CA
:103B300065E3A62E67E2B62E3EC08F3061F4E695AF
:103B4000F0E0E058F64FE4910E2F10E05CE1A52E76
:103B500058E2B52E30C0853159F4F0E0E358F64F05
:103B6000E4910E2F10E04CECA42E47E2B42E23C0BB
:103B70008831A1F0833249F4EBE7F9E00591149123
:103B80003BEEA32E39E2B32E16C0843271F404EF5B
:103B900011E02FE5A22E27E2B22E0DC008EE13E0B1
:103BA00099E9A92E97E2B92E06C000ED17E084E34B
:103BB000A82E87E2B82E80919A02882389F010926D
:103BC0009A020E949624980120953095820F931FA7
:103BD000909398028093970210929C0210929B02FD
:103BE00080919702909198020E946C24801791070F
:103BF00070F0E0919702F09198020E0F1F1F109342
:103C000098020093970287E992E0F5010995809167
:103C1000A6029091A7020E946C249C019091A5029B
:103C2000992321F02431310508F476C08091A10256
:103C30001091A20281110BC011110CC12091A3029D
:103C4000211108C12091A402211104C165C09F3F28
:103C500019F09F5F9093A502181624F40E94BE23CA
:103C60008093A1028091A10287FF05C00E94BE231C
:103C700081958093A102111624F40E94BE238093A3
:103C8000A2028091A20287FF05C00E94BE238195F7
:103C90008093A2023091A1023323D1F02091A2029D
:103CA0002223B1F045EB3403C0011124992319F00C
:103CB0009093A10202C0D092A10235EB2303C00170
:103CC0001124992319F09093A20202C0D092A2026B
:103CD0008091A302181624F40E949C238093A302CF
:103CE0008091A30287FF05C00E949C238195809349
:103CF000A3028091A402181624F40E949C238093AE
:103D0000A4028091A40287FF05C00E949C23819594
:103D10008093A4020E94A2240E94B5299091A80237
:103D2000891721F00E94B5298093A8028091610231
:103D3000843009F0F0CD8093E9008091E80082FFA3
:103D4000EACD8091E80085FF21C00E94381A8111D8
:103D50001BC000E410E0CE0101965C0108C0809118
:103D6000F100F50181935F010150110969F0809123
:103D7000E80085FDF4CF8091E8008B778093E80020
:103D80000E94381A882399F391E001C090E0809155
:103D9000E8008B778093E800992309F4BCCD8981F2
:103DA000811114C08091B902882359F11092B9028F
:103DB000D092B80222961FAE229723961FAE239769
:103DC0008EEF24968FAF249763E028C08130C9F42A
:103DD00022961FAE229723968FAF23978DE0E0E2C5
:103DE000F1E0D70101900D928A95E1F78EEF61968F
:103DF0008FAF619760E1CE018F5B9F4F0E94FF22E2
:103E00008ACD8091B802882321F02296CFAE2297E6
:103E100004C08FEF22968FAF229761E0CE018F5BB7
:103E20009F4F0E94FF2277CD80E189BD82E189BD4D
:103E300009B400FEFDCF8091D8008F7D8093D8001B
:103E40008091E00082608093E0008091E00081FD3D
:103E5000FCCF61CD9F3F09F0FCCE0DCFCF93809179
:103E6000E10282958F7009F05FC08091DE028823A5
:103E700009F45AC080911303B091E2027091DC0200
:103E8000A091DD024091DF025091E00291E07F3F7E
:103E900009F090E0692FC6E08B1709F445C0411581
:103EA000510521F0AF3F21F020E003C021E001C027
:103EB000262F90E020FD35C0C89FF001C99FF00D6E
:103EC0001124ED51FD4F21812A132BC0208127138E
:103ED00028C02281211125C0238134812417350770
:103EE00010F421503109241B350B283C3105C8F44E
:103EF0002091E1022F7020612093E10226E0289FAB
:103F0000F001299FF00D1124E851FD4F80818F7041
:103F1000806180838CED92E00E946805CF910C94C3
:103F20002A2701968770B8CFCF9108950E94512615
:103F3000292F2F70E92FE295EF704E2F50E0FA01F4
:103F40003297EE30F105B8F4E257FF4F0C94862C0F
:103F5000803F99F018F4883E70F40FC0843F59F404
:103F60000CC0883E50F0813F31F407C0822F869507
:103F700086958695089580E0089581E00895AF9232
:103F8000BF92CF92DF92EF92FF920F931F93CF9346
:103F9000DF93CDB7DEB761970FB6F894DEBF0FBEE3
:103FA000CDBF8C0185E0F801DE011D9601900D92D8
:103FB0008A95E1F7D8013C9111962C9111971296B0
:103FC000EC905091DC026091DD028091DF029091D3
:103FD000E002009731F06F3F31F441E05F3F19F4A8
:103FE00003C041E001C040E0B42FB170BB2E40FDE2
:103FF00043C1F801C380D480A090DE02AA2009F456
:10400000E2C04091E102C816D90628F0D601A81BEB
:10401000B90BCD0104C0809590958C0D9D1DFF249A
:10402000F394883C910548F0F12C407F09F090C052
:104030008CED92E00E94680517C1842F807F09F003
:1040400052C0621312C0531310C0FE2CE1100DC0F9
:104050004F7040614093E1028CED92E00E94680550
:104060008091E102F801858354C1CD2831F02F3FC2
:1040700031F481E03F3F19F403C081E001C080E0EA
:1040800080FD03C081E08E2502C080E090E0F82F23
:10409000F170FF2E80FF1CC0809113034091E2025B
:1040A00056E0841709F412C190E0589FF001599F1F
:1040B000F00D1124ED51FD4F6181261306C0608182
:1040C000361303C06281E61203C001968770E9CF00
:1040D000FE2CEE2009F41DC18091E10281608093E5
:1040E000E102F12C16C1621308C0531306C0E1109F
:1040F00004C08091E102F80199C03D872E878D852B
:104100009E850E94961F882369F1EE2059F1209127
:10411000E102822F82958F7090E0029774F0809177
:10412000DC029091DD0298878F831986DB86CA8630
:104130002C87CE0107960E94680586E0F801ACED59
:10414000B2E001900D928A95E1F70E942E1F0DC0FA
:10415000621771F03D872E878D859E850E94961F80
:1041600081111AC0C8010E946805FF24F394D1C0D0
:104170005313F0CFE110EECF8091E102F801858377
:10418000C8010E94680586E0ECEDF2E0DF011D92B7
:104190008A95E9F7FA2CBDC0EE2021F32091E102C7
:1041A000822F82958F7090E002973CF28091DC0222
:1041B0009091DD029A8389831B82DD82CC822E83DB
:1041C000CE010196B8CFC816D90638F0C81AD90A58
:1041D000B8ECCB16D10450F007C0809590958C0DAB
:1041E0009D1D883C910510F0F12C3EC0FE2CEE2068
:1041F00009F4B8CF621327C0531325C02091E10200
:1042000020FD18C0822F82958F70482F50E04115F5
:10421000510581F0F80125834F30510541F08F5F42
:10422000982F9295907F822F8F70892B8583C8015C
:104230000E94680586E0F801ACEDB2E001900D92B5
:104240008A95E1F766C03D872E878D859E850E9401
:10425000961F811172CF8091E10281608093E1020B
:10426000C8010E94680555C0ECEDF2E086E0DF0170
:104270001D928A95E9F74DC0EE2009F473CF3D8772
:104280002E878D859E850E94961FF82E882309F41F
:1042900069CF86E0F801ACEDB2E001900D928A950D
:1042A000E1F78091DC029091DD020E945126929507
:1042B0009F70963041F48091BB0291E089278093F2
:1042C000BB029093BA020E942E1F23C03D872E8707
:1042D0008D859E850E945126292F22952F70223090
:1042E00028F49F7039F0811105C00BC0243028F4E8
:1042F0009F7049F4805E883020F0C8010E946805F4
:10430000BF2CFB2C06C0D80115969C91907F91F78D
:10431000F8CF8F2D61960FB6F894DEBF0FBECDBFDC
:10432000DF91CF911F910F91FF90EF90DF90CF9091
:10433000BF90AF90089510925103109250030E94C5
:10434000C925EFE9F2E086E0DF011D928A95E9F7E1
:104350001092A50210925C030E94A22480E090E0DB
:104360000E949F2980E090E00C94892910925203CA
:1043700080910601882331F08091830287FF02C07B
:104380008EE101C086E0EEEBF2E0DF011D928A953E
:10439000E9F70C949B21882341F08095909151037B
:1043A0008923809351030C94C9250895882339F0FB
:1043B00090915103892B809351030C94C925089542
:1043C000882341F080959091520389238093520372
:1043D0000C94C9250895882339F090915203892BB4
:1043E000809352030C94C9250895882309F463C06F
:1043F000823869F40E94B52981FF5DC069E38CEBC6
:1044000092E00E9409250E94C92569E30EC0833805
:1044100091F40E94B52980FF4EC063E58CEB92E0D9
:104420000E9409250E94C92563E58CEB92E00E9459
:10443000E1240C94C925843869F40E94B52982FFCF
:104440003AC067E48CEB92E00E9409250E94C925DE
:1044500067E4EBCF9CEF980F913A10F4682FE5CF0B
:1044600090E2980F983088F4877021E030E0A9013D
:1044700002C0440F551F8A95E2F7CA0180959091BA
:104480005203892380935203D4CF9BE5980F933036
:1044900020F480E090E00C949F2998E5980F9731E4
:1044A00020F480E090E00C948929803F20F00E9465
:1044B00017230C94A2240895882309F489C0823814
:1044C000B1F40E94B52981FD83C069E38CEB92E0D1
:1044D0000E9409250E94C9252FEF41EE54E021508A
:1044E00040405040E1F700C0000069E317C0833846
:1044F000D9F40E94B52980FD6BC063E58CEB92E096
:104500000E9409250E94C9258FEF91EE24E0815079
:1045100090402040E1F700C0000063E58CEB92E0A2
:104520000E94E1240C94C9258438B1F40E94B52975
:1045300082FD4EC067E48CEB92E00E9409250E9448
:10454000C9254FEF51EE84E0415050408040E1F7E3
:1045500000C0000067E4E2CF9CEF980F913A30F47E
:10456000682F8CEB92E00E940925DCCF90E2980F37
:10457000983080F4877021E030E0A90102C0440F38
:10458000551F8A95E2F7CA0190915203892B8093B7
:104590005203C8CFEBE5E80FE33038F4F0E0E35D19
:1045A000FE4F808190E00C949F29E8E5E80FE73109
:1045B00048F4F0E0EE0FFF1FE05DFE4F8081918137
:1045C0000C948929803F20F00E94DE230C94A224C1
:1045D0000895CF93C82F0E945C22C93349F42FEF6E
:1045E00087EE93E0215080409040E1F700C000004A
:1045F0008C2FCF910C94F52180913E02089520914B
:104600006102243099F423E02093E90070E040E057
:1046100050E00E946B1A882321F01092B802109289
:10462000B9028091E8008E778093E8000895803F7A
:1046300039F48091A20287FF6CC01092A20269C077
:10464000813F29F48091A2021816BCF362C09091B8
:10465000A102823F29F497FF5CC01092A10259C0C9
:10466000833F19F41916CCF354C0893F41F480916B
:10467000A30218160CF04DC01092A3024AC08A3F44
:1046800029F48091A30287FF44C0F6CF8B3F39F411
:104690008091A40287FF3DC01092A4023AC08C3FD3
:1046A00029F48091A4021816BCF333C0843F21F48E
:1046B0008091A0028E7F17C0853F21F48091A002D7
:1046C0008D7F11C0863F21F48091A0028B7F0BC0AB
:1046D000873F21F48091A002877F05C0883F31F495
:1046E0008091A0028F7E8093A00213C08D3F21F4A1
:1046F00080915C038E7F0BC08E3F21F480915C0320
:104700008D7F05C08F3F29F480915C038B7F809360
:104710005C038091A10281110EC08091A2028111DF
:104720000AC08091A302811106C08091A402811168
:1047300002C01092A502089580915C0380FD16C00E
:1047400081FD16C082FD18C08091A502882391F0DA
:10475000883290F428E0829FC001112468E270E062
:104760000E94722C862F672B29F007C082E00895E3
:1047700084E0089581E0089588E0089580915C03C5
:1047800080FD14C081FD14C082FD16C08091A50279
:10479000882381F0843180F423E2829FC0011124B8
:1047A00064E170E00E94722C862F089588E00895DD
:1047B00081E1089585E0089583E20895803F21F422
:1047C0000E94BE23819504C0813F29F40E94BE232C
:1047D0008093A2020895823F21F40E94BE23819516
:1047E00004C0833F29F40E94BE238093A102089550
:1047F000893F19F40E949C2305C08A3F31F40E942E
:104800009C2381958093A30208958B3F21F40E94FD
:104810009C23819504C08C3F29F40E949C238093A3
:10482000A4020895843F21F48091A002816017C002
:10483000853F21F48091A002826011C0863F21F45F
:104840008091A00284600BC0873F21F48091A00278
:10485000886005C0883F31F48091A0028061809318
:10486000A00208958D3F21F480915C0381600BC00C
:104870008E3F21F480915C03826005C08F3F29F454
:1048800080915C03846080935C03089578941F9208
:104890000F920FB60F9211248F939F93AF93BF93F4
:1048A0008091580390915903A0915A03B0915B03F2
:1048B0000196A11DB11D8093580390935903A093B5
:1048C0005A03B0935B03BF91AF919F918F910F906B
:1048D0000FBE0F901F901895CF92DF92EF92FF922C
:1048E0000F931F932FB7F894409158035091590399
:1048F00060915A0370915B032FBF6A017B01EE2424
:10490000FF248C0120E030E0C016D106E206F30659
:1049100010F4415051099A01281B390BC9011F910C
:104920000F91FF90EF90DF90CF9008952FB7F894FC
:104930008091580390915903A0915A03B0915B0361
:104940002FBF0895E0918602F0918702309749F0D9
:1049500082E080939F020480F581E02D8FE992E050
:1049600009950E9496249093A7028093A602089529
:104970001F920F920FB60F9211248F939F93AF93B4
:10498000BF9380918802811113C080915803909148
:104990005903A0915A03B0915B034196A11DB11D2B
:1049A0008093580390935903A0935A03B0935B03E9
:1049B000BF91AF919F918F910F900FBE0F901F905D
:1049C0001895209106012223C9F02091830227FF28
:1049D00015C0262F2695269526952E31C8F4FC0164
:1049E000E20FF11D677081E090E001C0880F6A95C9
:1049F000EAF780959281892382830895FC010696C7
:104A00002281621301C012823196E817F907C1F7BB
:104A10000895209106012223C1F02091830227FFEF
:104A200014C0262F2695269526952E3130F5FC01AB
:104A3000E20FF11D677081E090E001C0880F6A9578
:104A4000EAF79281892B82830895FC0132962FEF39
:104A500030E04191641789F02F3F19F4411101C0F2
:104A6000232F3F5F3630A9F72F3F39F0FC01E20FCB
:104A7000F11D27FDFA95628308950895CF9384E090
:104A800090E00E94082CC82F81E290E00E94082C40
:104A90002C2F30E0A901582BCA01CF9108956FEE59
:104AA0007EEF80E090E00E943A2C60E082E090E0AF
:104AB0000E941C2C60E083E090E00E941C2C10926D
:104AC000540310925503109256031092570360E05E
:104AD00084E090E00E941C2C60E081E290E00E9463
:104AE0001C2C60E085E090E00E941C2C60E086E0D9
:104AF00090E00E941C2C6FEF87E090E00E941C2C3D
:104B000040E050E0BA0188E090E00E942E2C60E086
:104B10008DE090E00E941C2C40E050E0BA0188E15A
:104B200090E00E942E2C60E087E190E00E941C2C17
:104B300040E050E0BA018CE190E00E942E2C60E051
:104B400080E290E00E941C2C10927102109272027E
:104B5000109273021092740284E08061809371025B
:104B600040917102509172026091730270917402CF
:104B70008FE090E00E942E2C40E050E0BA0183E1EB
:104B800090E00C942E2C80915303811110925303CA
:104B900008959091520380915103892B20915003E5
:104BA000982F922B9093BC02809153038823D9F0C5
:104BB000892B8093BC0280910601882331F080917B
:104BC000830287FF02C08EE101C086E0EEEBF2E0D7
:104BD00090E0815028F021912223D9F39F5FF9CFF3
:104BE00091110E94C325E0918602F09187023097CF
:104BF000A9F080910601882359F08091830287FFF4
:104C000007C08091BC028093BD0285E08093BC0206
:104C10000280F381E02D8CEB92E009940895BF921D
:104C2000CF92DF92EF92FF920F931F93CF93DF9378
:104C30008C01C0904B03D0904C03E0904D03F0905A
:104C40004E038091540390915503A0915603B09167
:104C50005703C82AD92AEA2AFB2ACFE1D0E0D70194
:104C6000C6010C2E04C0B695A795979587950A9412
:104C7000D2F780FD04C0219790F7B12C07C0BC2E5D
:104C8000B8018C2F0E9431100197A9F38B2DDF9171
:104C9000CF911F910F91FF90EF90DF90CF90BF9039
:104CA0000895CF93DF93EC010E940F26BE010E946E
:104CB0003110DF91CF910895292F220F920F990F74
:104CC000890F682F669566956695982F977085E091
:104CD000689FB001112440E050E080E0FB01E40F48
:104CE000F51FEC5EFC4F208130E0092E02C03695A6
:104CF00027950A94E2F721703327042E01C0220F72
:104D00000A94EAF7822B4F5F5F4F4530510531F728
:104D10000895292F220F920F990F890FE82FE695FA
:104D2000E695E695877051E001C0550F8A95EAF740
:104D300085E0E89FF0011124EC5EFC4F20E030E0BC
:104D400070E04081CB01022E02C0969587950A94AF
:104D5000E2F78170819584278523842781932F5FD3
:104D60003F4F2530310569F708950E94DF116093A8
:104D70004B0370934C0380934D0390934E030C941C
:104D80009B210F931F9341E050E060E070E004C06E
:104D9000440F551F661F771F8A95D2F7409550958F
:104DA0006095709580914B0390914C03A0914D03B9
:104DB000B0914E038A019B01082319232A233B2328
:104DC000C901B8011F910F910C94B52620914F0392
:104DD0008095822380934F03982F977079F430E069
:104DE000482F082E000C550B2417350739F08595F0
:104DF000859585950E94C12610924F0308950F93C3
:104E00001F9341E050E060E070E004C0440F551F84
:104E1000661F771F8A95D2F780914B0390914C03C0
:104E2000A0914D03B0914E038A019B01082B192BD1
:104E30002A2B3B2BC901B8011F910F910C94B52669
:104E400060935403709355038093560390935703D4
:104E50000C949B21809113039091E202891719F021
:104E60008F5F8770FBCF08950895EF92FF921F9395
:104E7000CF93DF93EC0180E6E82E83E0F82E10E07C
:104E80008C8197014091390260913802810F0E9414
:104E90007B0F1F5E84E0E80EF11C1F3F89F70E9424
:104EA0003D139A818C8190FF02C08F5F01C08150B9
:104EB0008C83DF91CF911F91FF90EF900895EF9237
:104EC000FF920F931F93CF93DF938C01C0E6D3E043
:104ED000E12CF12CF8018481F7E0EF16F1041CF4C9
:104EE000882339F002C0811104C09E01409139022B
:104EF00002C09E0140E060913802809137020E941A
:104F00007B0F8FEFE81AF80A24969FE0E916F10468
:104F100009F70E943D13F801848190E001968170A9
:104F200099278483DF91CF911F910F91FF90EF908C
:104F30000895EF92FF920F931F93CF93DF93EC01AD
:104F40008C819D810196817099279D838C8380E659
:104F5000E82E83E0F82E10E005E5212F26958C81C0
:104F60009D81820F911D817097014091390260915E
:104F70003802809F802D11240E947B0F1F5F84E0E8
:104F8000E80EF11C1F3049F7DF91CF911F910F916F
:104F9000FF90EF900C943D130F931F93CF93DF93EB
:104FA000C0E6D3E0FE011182108212821382349691
:104FB00083E0EC39F807B9F700E010E080915E0378
:104FC000082E000C990B0817190794F080911F0107
:104FD000082E000C990B8017910754F09E01409108
:104FE000390260913802809137020E947B0F04C021
:104FF000198218821A821B820F5F1F4F24960F306E
:105000001105E1F60E943D1380911E0190915E030F
:10501000980F90935E0320911F01280F20931F018A
:10502000121614F49E301CF0819580931E01DF91BE
:10503000CF911F910F910895BF92CF92DF92EF927F
:10504000FF920F931F93CF93DF93FC01828180FF28
:1050500003C0DD24DA9402C0DD24D39400E613E01B
:10506000C0E0D0E02FE0B22EF8011182108212824F
:10507000138294E0E92EF12CC12C80915D038C0DFC
:1050800080312CF06B2D0E94502C892F02C087FD9F
:10509000815F082E000C990BC817D90791F48091F5
:1050A00039028E9DA0018F9D500D11245595479575
:1050B00055954795980160913802809137020E947A
:1050C0007B0FCD0CF1E0EF1AF108B9F621960C5FD9
:1050D0001F4FCF30D10541F60E943D1380915D03F3
:1050E00091E0D91206C0811102C08EE007C0815044
:1050F00005C090E00196BE010E94722C80935D0372
:10510000DF91CF911F910F91FF90EF90DF90CF90A3
:10511000BF900895CF93DF93EC01E6E3F2E0438183
:1051200062818C810E9410108C818F5F8C83DF9153
:10513000CF910895CF93DF93EC01EC81F0E0EE5630
:10514000F64F4491E6E3F2E0628181810E94101003
:105150008C818F5F8C83DF91CF9108950F931F9384
:10516000CF93DF93CDB7DEB767970FB6F894DEBF66
:105170000FBECDBF4B8B5C8B6D8B7E8B8F8B0E8967
:105180001F890115110531F05F3F31F481E04F3F78
:1051900019F403C081E001C080E080FD32C0242FFB
:1051A00030E0A1E0B0E0042E01C0AA0F0A94EAF7B3
:1051B000852F90E0662319F07091BB0205C0FC01B9
:1051C000EE55FC4F70817A237723A1F046E0489F8B
:1051D000F001499FF00D1124E20FF31FEE0FFF1FA6
:1051E000ED57FE4F40815181FC01EE55FC4F9081FF
:1051F000A92B06C0FC01EE55FC4FA0958081A82389
:10520000A08386E0FE013D96DF01982F1D929A95BE
:10521000E9F74D875E876F87198B088BDE0117963C
:1052200001900D928A95E1F7CE0107960E94BF1F6B
:1052300081113EC086E0FE013796DE011196019095
:105240000D928A95E1F7FF81E8856A857B85611576
:10525000710531F0EF3F31F481E0FF3F19F403C0F5
:1052600081E001C080E080FD23C02091E20230E0B7
:10527000C9010196877099274091130350E0841764
:10528000950779F1F983EA837D836C8396E0929F99
:10529000D001939FB00D1124AD51BD4FFE01319649
:1052A00001900D929A95E1F78093E2020E942A27DD
:1052B00016E0809113039091E2028917F9F0189F8C
:1052C000C00111248D519D4F0E94BF1F8823B1F052
:1052D0008091130390E001968770992780931303C0
:1052E000E8CF0E94B6211092E20210921303ECED77
:1052F000F2E086E0DF011D928A95E9F767960FB626
:10530000F894DEBF0FBECDBFDF91CF911F910F91FB
:1053100008952091A0033091A1032817390771F057
:105320009093A1038093A003E0918602F0918702FD
:10533000309721F00084F185E02D099408952091A3
:105340009E0330919F032817390771F090939F03B4
:1053500080939E03E0918602F0918702309721F0BE
:105360000680F781E02D09940895E0918602F0917E
:105370008702309721F00190F081E02D099480E0C0
:1053800008959091360290FF04C09695981740F0CA
:1053900003C0811105C090E0961710F40C94620FC1
:1053A00061E00C941E0F882311F0FA0101C0FB018B
:1053B00009949091360290FF0DC0E0E6F3E08183FE
:1053C000608342831382349693E0EC39F907B9F78E
:1053D0000C943D1308950F931F93CF93DF9300D048
:1053E00000D0CDB7DEB78C0180915F0381110AC078
:1053F0009E012F5F3F4F4FEF6FEF0E947B0F8A811F
:1054000080935F03F8018481813051F028F082306D
:1054100061F440915F030AC080915F0340E007C0E0
:1054200060915F0340E080E003C040E080E060E026
:105430000E94D929F801848190E0019663E070E030
:105440000E94722C84830F900F900F900F90DF9129
:10545000CF911F910F9108955F926F927F928F92DB
:105460009F92AF92BF92CF92DF92EF92FF920F93F3
:105470001F93CF93DF9300D000D0CDB7DEB7182FA6
:10548000762E042F622E9091360290FF6DC0E92F88
:10549000E695AE2FB0E0A25ABE4F8C9180939D024C
:1054A0009E7F923061F49E012F5F3F4F812F0E94BB
:1054B0007B0F4B8169818A810E94D92943C0823048
:1054C00019F4009139023EC0863019F41091370268
:1054D00039C08930D9F38931A9F5E9518E2F81700E
:1054E000582EE695F0E0E357F64FA590B49080E68D
:1054F000C82E83E0D82EE12CF12CBB249FE0892E0E
:10550000912CAE9CC001AF9C900DBE9C900D1124BF
:10551000B4010E945E2C812F511002C0860F01C081
:10552000861B9601402F672D0E947B0F8FEFE81A94
:10553000F80A84E0C80ED11C8FE0E816F10409F7E0
:105540000E943D1310933702709238020093390283
:10555000662051F0609136027091370280913802D6
:10556000909139020E94EA0E0F900F900F900F90C9
:10557000DF91CF911F910F91FF90EF90DF90CF902F
:10558000BF90AF909F908F907F906F905F900895A5
:105590000F931F93CF93DF93C62FD42F122FFC01AD
:1055A00082818823C9F060932D020E9496249093F3
:1055B0009D0380939C0380E28C0F883008F057C0D5
:1055C000C77081E001C0880FCA95EAF7DF91CF91DB
:1055D0001F910F910C94EB2180912D02681330C024
:1055E00080919C0390919D030E946C24883C9105BE
:1055F00038F500E20D0FCD17B9F080E28C0F88303E
:1056000040F4C77081E001C0880FCA95EAF70E9494
:10561000E021083028F581E09D2F977001C0880FA8
:105620009A95EAF70E94EB21812F0E94E922083027
:10563000F0F4D77081E001C0880FDA95EAF70AC06C
:1056400080E28C0F883098F4C77081E001C0880F29
:10565000CA95EAF7DF91CF911F910F910C94E02149
:10566000812FDF91CF911F910F910C94E922DF914F
:10567000CF911F910F91089560913602669570E069
:105680004BE050E083E191E00E94B92D892B19F4A1
:1056900081E080939E020E949624909398028093CA
:1056A000970208951092B9008CE08093B800089595
:1056B000EF92FF920F931F93CF93DF93182FEB017D
:1056C0001092BC0084EA8093BC000E9496247C0166
:1056D0008091BC0087FD0EC0CF3F8FEFD807C1F38C
:1056E0000E9496248E199F098C179D0788F38EEFD0
:1056F0009FEF2EC08091B900887F883041F0809163
:10570000B900887F803119F08FEF9FEF21C010938F
:10571000BB0084E88093BC000E9496248C01809199
:10572000BC0087FD0CC0CF3F8FEFD807C1F30E94AC
:105730009624801B910B8C179D0788F3D8CF8091FE
:10574000B900887F883111F08034F1F680E090E074
:10575000DF91CF911F910F91FF90EF9008950F93DC
:105760001F93CF93DF93EB018093BB0084E880937A
:10577000BC000E9496248C018091BC0087FD0EC065
:10578000CF3F8FEFD807C1F30E949624801B910B67
:105790008C179D0788F38EEF9FEF0CC02091B90006
:1057A000287F81E090E0283211F480E090E091952C
:1057B00081959109DF91CF911F910F9108950F93DA
:1057C0001F93CF93DF93EC0184E88093BC000E9489
:1057D00096248C018091BC0087FD0EC0CF3F8FEFD7
:1057E000D807C1F30E949624801B910B8C179D074C
:1057F00088F38EEF9FEF03C08091BB0090E0DF91B4
:10580000CF911F910F91089584E98093BC00089572
:10581000F999FECF92BD81BDF89A992780B5089578
:10582000A6E1B0E044E050E00C94422CA8E1B0E0E6
:1058300042E050E00C94422C262FF999FECF92BD05
:1058400081BDF89A019700B4021639F01FBA20BD45
:105850000FB6F894FA9AF99A0FBE08950396272F77
:105860000E941D2C0E941C2C252F0E941D2C242FD1
:105870000C941D2C0196272F0E941D2C0C941C2C7F
:10588000DC01CB01FC01F999FECF06C0F2BDE1BD00
:10589000F89A319600B40D9241505040B8F70895EF
:1058A00087FB082E062687FD819567FD61950E947E
:1058B0008C2C0EF4919507FC81950895AA1BBB1BB7
:1058C00051E107C0AA1FBB1FA617B70710F0A61B00
:1058D000B70B881F991F5A95A9F780959095BC0121
:1058E000CD01089597FB072E16F4009407D077FD9D
:1058F00009D00E945E2C07FC05D03EF4909581955E
:105900009F4F0895709561957F4F0895EE0FFF1F8B
:105910000590F491E02D0994991B79E004C0991F3A
:10592000961708F0961B881F7A95C9F780950895F9
:105930000F931F93CF93DF938230910510F482E091
:1059400090E0E091B203F091B30320E030E0A0E0FA
:10595000B0E0309719F140815181028113814817DD
:105960005907C8F08417950769F4109731F012961B
:105970000C93129713961C9327C00093B2031093B5
:10598000B30322C02115310519F04217530718F44B
:105990009A01BD01EF01DF01F801DBCF21153105CF
:1059A000F9F0281B390B2430310580F48A819B8162
:1059B0006115710521F0FB019383828304C09093EC
:1059C000B3038093B203FE01329644C0FE01E20F9E
:1059D000F31F8193919322503109398328833AC070
:1059E0002091B0033091B103232B41F420910201A7
:1059F000309103013093B1032093B0032091000153
:105A0000309101012115310541F42DB73EB7409188
:105A1000040150910501241B350BE091B003F09176
:105A2000B103E217F307A0F42E1B3F0B2817390729
:105A300078F0AC014E5F5F4F2417350748F04E0FEA
:105A40005F1F5093B1034093B0038193919302C0C1
:105A5000E0E0F0E0CF01DF91CF911F910F91089529
:105A6000CF93DF93009709F481C0FC013297138232
:105A70001282A091B203B091B303109781F42081F8
:105A80003181820F931F2091B0033091B103281709
:105A9000390751F5F093B103E093B00367C0ED010E
:105AA00020E030E0CE17DF0740F44A815B819E01A1
:105AB00041155105F1F0EA01F5CFD383C28340814E
:105AC0005181840F951FC817D90759F4888199818E
:105AD000840F951F0296918380838A819B81938393
