:100000000C94A5050C94C2050C94C2050C94C20571
:100010000C94C2050C94C2050C94C2050C94C20544
:100020000C94C2050C94C2050C948B220C94C7212D
:100030000C94CC180C94C2050C94C2050C94C20507
:100040000C94C2050C94C2050C94C2050C94C20514
:100050000C94C2050C945A180C94C2050C94C20559
:100060000C94C2050C94C2050C94C2050C94C205F4
:100070000C94C2050C94C2050C94C2050C94C205E4
:100080000C94C2050C94C2050C94C2050C94C205D4
:100090000C94C2050C94C2050C94C2050C94C205C4
:1000A0000C94C2050C94C2050C94C205BA0ABA0A93
:1000B000F80AF80A410B610B350D8E0DA30B8F0C5E
:1000C000A10CA10C0F0F140F1E0F120F170F1C0FF6
:1000D0001A0F650F680F6B0F6E0F710F740F770F8C
:1000E0000C2033209F2133209F217B209E209F21A5
:1000F0005D217121802C802C932C932C892C932CA6
:10010000932C932C802C802C8E2C932C932C8E2C27
:10011000294101001D000351E30000001E020500FB
:1001200014002700E200E1001F021F4518001C0018
:10013000E0002B42200213000C001B0050002C4159
:1001400021021200080036024F0016082202240085
:1001500010000E000000AA001A0819080000060886
:100160000000A90039000100000001000000AE00FD
:1001700023022F00060021000000AB00240219001A
:10018000170004005200AC002502070016000A0008
:100190005100284126020F0015000B00E4002A42FE
:1001A00027020D0011000900E600E500015D1A00BC
:1001B00033002600E70000000100010001000100FB
:1001C0000100000006081B080100010001000100F9
:1001D00019081A0801000100010001002800140894
:1001E00001000100010001002A00010001000100DE
:1001F00001000100010001000100010000000100F8
:1002000016080100000001000000010001000100CB
:10021000000014060000010001000D181E08370A36
:100220000000010001002A0050001401000001003C
:100230000E0A520051004B004E00010009064C000E
:100240004F0008010000010001000000280000002C
:10025000000001001A08190806081B08140800000D
:100260000100010001000100010000000100250063
:100270003502370601000100010035002E02370269
:1002800001000100010022042200220601000100F9
:1002900001002D042D002D06010001000100340293
:1002A0001E00110400000100010001000000010017
:1002B0000000010001000100000001000000010039
:1002C00001002F000F06300000000100010038027D
:1002D000380030020100010001002E0021006400FE
:1002E000010001000100320037006402010001003A
:1002F0000100360020001002010001000100010091
:1003000001000100010000000100010001000100E6
:1003100001000000010001000100010001000100D6
:1003200001000100010001000100010001000100C5
:1003300001000100010001000100010001000100B5
:1003400001000100010001000100010000000100A6
:100350000100010000000100000001000100010097
:100360000000010000000100000000003302100046
:100370000000010029005F005C0059002702010015
:10038000560460005D005A0027020100340261003B
:100390005E005B0036020100540055005600570015
:1003A00058000100010001003602010001000000B8
:1003B000000000000000000000000000000000003D
:1003C000000000000000000000000000000000002D
:1003D000000000000000000000000000000000001D
:1003E000000000000000000000000000000000000D
:1003F00000000000000000000000000000000000FD
:1004000000000000000000000000000000000000EC
:1004100000000000000000000000000000000000DC
:1004200000000000000000000000000000000000CC
:1004300000000000000000000000000000000000BC
:1004400000000000000000000000000000000000AC
:100450000000000000000000010001000100010098
:100460000100000001000100010001000100010085
:100470000100010001000100010001000100F50080
:10048000010001000100010001000100F400010071
:100490000100010001000100010001000000010055
:1004A0000100010000000100000001000100010046
:1004B0000000010000000100010001000100010036
:1004C000000001000100F900F2000100010001003C
:1004D0000100F000F1000100010001000100FA003C
:1004E000F300010001000100010001000100010012
:1004F00001000100010001000100010001000000F5
:1005000000000000000000000000000000000000EB
:1005100000000000000000000000000000000000DB
:1005200000000000000000000000000000000000CB
:1005300000000000000000000000000000000000BB
:1005400000000000000000000000000000000000AB
:10055000000000000000000000000000000000009B
:10056000000000000000000000000000000000008B
:10057000000000000000000000000000000000007B
:10058000000000000000000000000000000000006B
:10059000000000000000000000000000000000005B
:1005A0000001010101010100010101010000000041
:1005B0000000000000000000000001000100010137
:1005C000010101010101010101010101010101011B
:1005D000010101010101010101010100000001010E
:1005E000000000000000000000000000000000000B
:1005F00000000000000000000000000101010100F7
:1006000000000000000000002A2B2800000000006D
:1006100000000000000000000000002900000000B1
:100620002C1E3420212224342627252E362D37381F
:10063000271E1F202122232425263333362E373828
:100640001F0405060708090A0B0C0D0E0F101112E6
:10065000131415161718191A1B1C1D2F3130232DB2
:10066000350405060708090A0B0C0D0E0F101112B0
:10067000131415161718191A1B1C1D2F3130354C61
:1006800051394B206973207468652062657374204A
:100690007468696E6720657665722100000101014A
:1006A000010101010101020202020202020202032F
:1006B00003030303030303040404040404040505FF
:1006C00005050506060606060707070707080808C2
:1006D00008090909090A0A0A0B0B0B0C0C0C0D0D71
:1006E0000D0E0E0E0F0F0F10101111111212131309
:1006F0001414151516161717181819191A1A1B1B82
:100700001C1D1D1E1E1F20202122222324242526DD
:1007100026272829292A2B2C2D2D2E2F3031323215
:10072000333435363738393A3B3C3D3E3F40414221
:10073000434445464748494A4C4D4E4F5051535407
:10074000555658595A5B5D5E5F61626465666869BB
:100750006B6C6D6F7072737577787A7B7D7E80823B
:10076000838587888A8C8E8F91939596989A9C9E84
:10077000A0A2A3A5A7A9ABADAFB1B3B5B7BABCBE94
:10078000C0C2C4C6C9CBCDCFD1D4D6D8DBDDDFE261
:10079000E4E7E9EBEEF0F3F5F8FAFDFFFFAA7F5589
:1007A000400A00000000000306B20008000100003B
:1007B00000A800080002000200A000140003005777
:1007C000494E555342000000000000000000008424
:1007D00000040007002A00440065007600690063F9
:1007E00000650049006E00740065007200660061DB
:1007F0000063006500470055004900440073000095
:100800000050007B003900440042003700460031B0
:1008100000460044002D0037004500370041002D00
:100820000034003000300038002D0039003300362D
:100830000042002D003600420041003600430031E6
:10084000003900410033003000380063007D0000B3
:100850000000001B0301636F6E6669677572652E89
:100860006572676F646F782D657A2E636F6D000512
:10087000010902A10185020901A100050919012947
:100880000515002501950575018102950175038106
:10089000010501093009311581257F95027508810F
:1008A0000609381581257F950175088106050C0A12
:1008B00038021581257F950175088106C0C00501A4
:1008C0000980A10185031A81002A830016010026F0
:1008D0000300950175108100C0050C0901A1018577
:1008E000041A01002A9C02160100269C029501753B
:1008F000108100C005010906A1018505050719E061
:1009000029E71500250195087501810205071900E1
:1009100029EF1500250195F07501810205081901DF
:100920002905950575019102950175039101C00591
:10093000010906A101050719E029E7150025019520
:1009400008750181029501750881010507190029C3
:10095000FF150026FF00950675088100050819019E
:100960002905950575019102950175039101C0094D
:10097000025200030100A0FA090400000103010172
:100980000009211101000122400007058103080030
:100990000A090401000103000000092111010001FE
:1009A00022C0000705820320000A0904020002FF9A
:1009B000000000070583034000050705040340000D
:1009C000051201100200000008EDFE0713010001EE
:1009D00002030104033000000016034500720067A3
:1009E000006F0064006F007800200045005A00008E
:1009F0000008035A005300410000000403090405E5
:100A00000F3900021C100500DF60DDD88945C74C96
:100A10009CD2659D9E648A9F00000306B20045003B
:100A20001810050038B60834A909A0478BFDA07638
:100A30008815B6650001420100047F3F1F6432142F
:100A4000643214783C1E1E140A0522232526282908
:100A50002A2C2D2F3032333536383A3B3D3E40423A
:100A6000434547494A4C4E5051535557595A5C5E7D
:100A70006062646668696B6D6F71737577797B7D91
:100A80007F81838587898A8C8E90929496989A9C90
:100A90009E9FA1A3A5A7A8AAACAEAFB1B3B4B6B8A8
:100AA000B9BBBCBEBFC1C2C3C5C6C7C9CACBCCCD0A
:100AB000CED0D1D2D2D3D4D5D6D7D7D8D9D9DADAE5
:100AC000DBDBDBDCDCDCDCDCDDDDDDDDDCDCDCDC65
:100AD000DCDBDBDBDADAD9D9D8D7D7D6D5D4D3D299
:100AE000D2D1D0CECDCCCBCAC9C7C6C5C3C2C1BF77
:100AF000BEBCBBB9B8B6B4B3B1AFAEACAAA8A7A5DB
:100B0000A3A19F9E9C9A98969492908E8C8A898796
:100B10008583817F7D7B79777573716F6D6B696874
:100B2000666462605E5C5A5957555351504E4C4A48
:100B30004947454342403E3D3B3A383635333230F3
:100B40002F2D2C2A29282625232211241FBECFEF42
:100B5000DAE0DEBFCDBF11E0A0E0B1E0EEE0F2E60A
:100B600002C005900D92AA3FB107D9F723E0AAEF82
:100B7000B1E001C01D92A638B207E1F70E94CD2472
:100B80000C9405310C9400008F929F92AF92BF920B
:100B9000CF92DF92EF92FF920F931F93CF93DF9349
:100BA000CDB7DEB72D970FB6F894DEBF0FBECDBF21
:100BB000FC01F080118183819481892B11F40C94C4
:100BC0009F0E1F3F29F40FEFF01611F40C949F0EA7
:100BD0006F0185E0DE01169601900D928A95E1F78E
:100BE000F60122818E819F81222349F00E94841A7E
:100BF000082F682F8E819F810E94FD1A03C00E94DA
:100C0000D01A082F26E0129FF001112434E5039F2B
:100C1000E00DF11D1124EF0DF11DEE0FFF1FE05F40
:100C2000FE4F0591149180912D038823A9F019821C
:100C3000F6018281811102C082E001C081E08A83D5
:100C4000F60180818B8381818C838EEF8D8365E0BB
:100C5000CE0101960E941317F60182810230FDE554
:100C60001F0709F040C0882309F4F4C09091E20204
:100C700081E0890F8770987F853020F4892B8093DD
:100C8000E20202C09093E2028091E20287700FEFCD
:100C9000809FC001112495958795959587959927F3
:100CA000909389008093880090938B0080938A00B2
:100CB00090938D0080938C004091E2025091E3026A
:100CC0006091E4027091E5028FE090E00E94612F54
:100CD0006091290370912A0380912B0390912C033A
:100CE0000E94C314B7C003302DE5120709F490C069
:100CF00004303DE5130731F002308DE5180709F0A7
:100D000059C0A8C0882309F455C060E8E62E66E003
:100D1000F62EF7012491222309F44CC0C701019655
:100D2000213041F47C01FC01B4908B2D0E94582DA0
:100D30008B2D3AC0223031F47C01FC0184910E9459
:100D4000582D34C0233021F47C01FC0184912CC047
:100D500030E0F901E050FA4F9490F901E058FA4F71
:100D6000E491BB24B394E11101C0B12CF901E0502E
:100D7000FB4F2491AA24A394211101C0A12CBB20D4
:100D800019F081EE0E94582DAA2019F086EE0E94DB
:100D9000582D892D0E94722EAA2019F086EE0E94ED
:100DA000F12CBB2019F081EE0E94F12CFFEFEF1A1D
:100DB000FF0AAFCFF6018281882381F0033E2CE544
:100DC000120709F462C008F055C0013E8CE518070F
:100DD00009F049C01092DE020E94441217FFC7C0FA
:100DE000F6018281811157C00C3CFCE51F0709F414
:100DF000FEC008F413C1043DECE51E0709F416C358
:100E0000D8F00E3D2CE5120709F01DC3F6018281D2
:100E1000882309F494C70E94741991C70C3CFCE51F
:100E20001F0709F4E4C008F49FC2043DECE51E0767
:100E300009F4FCC208F062C7003D2CE5120709F472
:100E400011C708F036C70E3C8CE5180709F417C720
:100E500008F022C7F6018281882309F470C781E077
:100E60000E942E126CC7023E9CE5190709F0B6CF0E
:100E700081E00EC0043EECE51E0749F0053EFCE5AE
:100E80001F0709F0ABCF84E003C082E001C083E01C
:100E90008093DE02A1CF80919A028093FA01109292
:100EA0009A028091DE02813071F048F08230C1F008
:100EB0008430E1F486EE0E94722E88E115C082EE45
:100EC0000E94582D13C083E00E94D22C88E10E941A
:100ED000582D88E10E94F12C83E00E94C72C06C0A7
:100EE00082EE0E94582D87E50E94722E8FE39CE9C6
:100EF0000197F1F700C000007801E894F7F85CE092
:100F0000A52EB12CC7010A2C02C0969587950A948C
:100F1000E2F7282F2F7041F0822F90E02A3010F452
:100F20004D9604C0069702C087E290E00E94722EA0
:100F300094E0A91AB108ECEFAE16EFEFBE0611F778
:100F40008091DE02813039F040F0823031F084301F
:100F500051F488E206C08CE204C082EE0E94F12CBB
:100F600002C00E94722E8091FA0180939A02033F80
:100F7000FCE51F0729F180F4083D3CE51307C9F0A3
:100F8000093D8CE5180741F1073D9CE5190739F546
:100F900026E241EE61EE10C0053FECE51E07C1F010
:100FA00098F0063F2CE51207D1F427E245EE66EEF5
:100FB00003C027E245EE65EEC6010E94ED2BBFC6D9
:100FC00026E241EE60EEF8CF27E245EE64EEF4CF84
:100FD00026E241EE62EEF0CF28E241E0ECCFF601EE
:100FE0008281882309F41ACF1092FB01FDCEF6010D
:100FF0008281882309F4A3C68091AB02882319F06B
:1010000081508093AB026091A7027091A8028091F9
:10101000A9029091AA020E947B1091C6043C3CE573
:10102000130761F4F6018281882309F488C6809150
:101030009A028272E1F40E94311281C6053C8CE56D
:10104000180708F097C506319CE5190798F0023C8F
:101050003CE5130709F499C108F4C0C1F601828187
:10106000882309F46CC680919A02827221F70E944B
:101070003A1265C60230ECE51E0708F41CC1F60101
:101080008281882309F41BC20E946919811102C060
:101090000E9474190E9458199093F5028093F402EB
:1010A0000F30FCE51F0709F4CFC008F042C008303C
:1010B0003CE5130709F4A8C0F0F404309CE51907D7
:1010C00009F490C068F40230FCE51F0709F486C0FB
:1010D00003301C4509F0DFC08091F4028260D9C062
:1010E00006303CE5130709F487C008F089C08091F9
:1010F000F4028860CEC00B309CE5190709F495C056
:1011000068F40930FCE51F0709F482C00A301C4569
:1011100009F0C1C08091F402886080C00D303CE5C8
:10112000130709F486C008F087C08091F4028D7F10
:10113000B0C00A3F9CE5190709F457C050F50231C9
:10114000FCE51F0709F488C068F400313CE513078B
:1011500009F47EC001311C4509F09DC08091F40264
:101160008F7B97C004319CE5190709F487C008F408
:1011700079C005311C4509F08EC08091F40282FBD4
:10118000222720F991E0922790FB82F990FB83F9C6
:1011900080C00D3F2CE5120709F452C058F40B3FF4
:1011A0008CE5180729F10C3F1C4509F074C08091AB
:1011B000F50260C00F3FECE51E0709F458C080F14E
:1011C00001151D4509F067C08091F502982F909593
:1011D00091708E7F892B90FB81F94DC08091F40234
:1011E000816057C08091F40219C08091F5021BC044
:1011F0008091F50282603FC08091F402806149C015
:101200008091F402806245C08091F402806441C004
:101210000E94B22C8091F40280683BC0846039C087
:101220008091F5028260816026C08091F4028E7FF9
:1012300030C08091F40219C08091F402877F29C0E8
:101240008091F5028D7F17C08091F4028F7E21C0BE
:101250008091F4028F7D1DC00E94B22C8091F40217
:101260008F7717C08091F402877F8B7F12C08091A7
:10127000F5028D7F8E7F8093F5020DC00E94B22C07
:101280008091F40287FB222720F991E0922790FBBE
:1012900087F98093F4026091F4021091F50284E0E2
:1012A00090E00E944F2F612F81E290E00E944F2F2B
:1012B0000E94B22C44C50115FCE51F0709F042C08D
:1012C000F6018281882309F43AC50E94B22CFFEF0F
:1012D00004E31CE0F15000401040E1F700C00000C2
:1012E000F89481E08093E00080E28093D80010922F
:1012F000C9008FE19EE40197F1F700C000001DBA1C
:10130000109268001CBC10BE1FBA10927A00109296
:101310006E0010926F001092710010927200109285
:10132000C9001092BC0014B817B81AB81DB810BA8A
:101330001092BC0015B818B81BB81EB811BA0C949E
:10134000003FFDC401301C4509F0B9C0F60182819F
:10135000882309F4F4C480911203982F909590FB90
:1013600080F980931203EBC4043C3CE5130709F4B5
:1013700059CE08F0FFC306319CE5190708F4AEC04A
:10138000023C3CE5130709F0EBC3F6018281882398
:1013900009F4D5C48091A70280FF1BC08E7F809383
:1013A000A7026091A7027091A8028091A902909172
:1013B000AA020E947B1010922803FFEF00E712E0C0
:1013C000F15000401040E1F700C000000E94CA0F39
:1013D000B6C481608093A702869542CD06311C4534
:1013E00009F06DC090919A02F6018281882381F004
:1013F0009A7A81E009F480E08093FC01811102C0B7
:1014000069E201C065E386E092E00E9420190BC00A
:101410008091FC01811102C069E201C065E386E0B0
:1014200092E00E94F5180E943E1A89C4F60182815A
:10143000882309F484C40E9460108951893008F41B
:1014400016CE89E10DCD0F3D3CE5130718F50C3D97
:101450008CE5180741F4F6018281882309F46FC4F2
:101460001092A5026CC40D3D9CE5190748F0F601E9
:101470008281882309F463C482E08093A5025FC45B
:10148000053D1C45E1F4F6018281882309F457C427
:1014900083E2E6CC0A3FFCE51F0788F001302DE52A
:1014A000120708F4ECCD01301D4549F4F6018281A4
:1014B000882309F444C481E080932E0340C4F601DC
:1014C0008281008111818823D1F0C8010E94841A91
:1014D000F82E682FC8010E94FD1A15C00230ECE5F5
:1014E0001E0708F0CCCD0115FCE51F0709F4E8CE76
:1014F00001301C4509F42ACFF60100811181C80191
:101500000E94D01AF82EB8018F2D0E944A12182F6F
:10151000382FF601258122952F700281011110923A
:101520009902809197028770A9F0002399F080E2D8
:10153000810F883078F082E02C873D879B870E945E
:101540005E1B809197028770EE24E3942C853D8585
:101550009B858111E12CA92EA2944FE0A422B12CED
:10156000FCE0AF16B10408F0D9C2F501EA5AFF4F0A
:101570000C94B92F892F807F9F70F92E882319F042
:10158000F29480EFF8220023B9F0FF2009F457C24B
:1015900080E2810F883010F0311106C090919A02DC
:1015A000F92AF0929A0205C090919902F92AF092D4
:1015B00099020E943E1A43C2812F3D870E94F12C5E
:1015C0003D85FF2009F4AAC2105EF094183010F097
:1015D000311106C090919A02F922F0929A0205C048
:1015E00090919902F922F09299020E943E1A96C2B5
:1015F000492F407F892F8F70403211F08295807F74
:10160000332319F03130E9F025C0002381F0309107
:101610009B02222351F0213041F4982F932B39174C
:1016200009F47CC290939B0279C2832B17C02223BA
:1016300019F0213009F472C28B870E94381A8B8509
:101640001DC0002321F0223008F068C207C021111C
:1016500065C214C0002329F02111F1C10E94E72CBA
:101660005DC2222359F0193309F0FBC10FEF27EEB9
:1016700033E0015020403040E1F7F1C10E94DC2C02
:101680004DC2292F26952695237030E0211531056E
:1016900021F02130310559F041C2002319F0812F8A
:1016A000937002C080E090E00E94B12B40C2002302
:1016B00019F0812F937002C080E090E00E949B2B74
:1016C00036C20023F9F0153F51F0163F71F0143F78
:1016D000A9F48091FD019091FE0181600BC0809181
:1016E000FD019091FE01826005C08091FD01909105
:1016F000FE0184609093FE018093FD01812F0E9482
:10170000F2171EC0153F51F0163F71F0143FA9F4B7
:101710008091FD019091FE018E7F0BC08091FD01B3
:101720009091FE018D7F05C08091FD019091FE0199
:101730008B7F9093FE018093FD01812F0E942B17D8
:101740000E94B618F4C1892F837009F070C001118E
:10175000ECC1812F829586958770880F880F412F65
:101760004F7050E060E070E04A015B01082E04C059
:10177000880C991CAA1CBB1C0A94D2F714FF12C037
:101780000FE010E020E030E004C0000F111F221F26
:10179000331F8A95D2F7B901A801409550956095FD
:1017A000709503C040E050E0BA019695969593700D
:1017B000892F90E08230910529F183309105C9F09D
:1017C00000919C0210919D0220919E0230919F02F7
:1017D000019759F0482959296A297B29CB01BA0177
:1017E00060237123822393230AC0802A912AA22A8C
:1017F000B32ACB01BA01682979298A299B290E9439
:10180000981B93C1482959296A297B2980919C02F8
:1018100090919D02A0919E02B0919F028A019B012E
:10182000082719272A273B27C901B801E8CF002339
:1018300019F0892F817001C08695882309F475C13C
:10184000812F829586958770880F880F412F4F7062
:1018500050E060E070E04A015B01082E04C0880C93
:10186000991CAA1CBB1C0A94D2F714FF12C00FE0EB
:1018700010E020E030E004C0000F111F221F331FD2
:101880008A95D2F7B901A801409550956095709559
:1018900003C040E050E0BA01969596959370892F69
:1018A00090E082309105E9F08330910579F1009163
:1018B000290310912A0320912B0330912C030197C7
:1018C00059F0482959296A297B29CB01BA0160239B
:1018D00071238223932320C0802A912AA22AB32A2B
:1018E00015C0482959296A297B298091290390919B
:1018F0002A03A0912B03B0912C038A019B01082796
:1019000019272A273B27C901B80106C0CB01BA0114
:10191000682979298A299B290E942D1B06C19F705D
:10192000F92E002339F0892F0E94771B812F0E9406
:10193000E72CFBC0812F0E94DC2C8F2D0E94391BCD
:10194000F4C0812F323FC9F128F4303F49F0313FD4
:1019500079F170C0333FC1F1343F09F44DC06AC022
:10196000002311F12111DAC0292F2F7181E090E0BD
:10197000A0E0B0E0AC01BD0104C0440F551F661FDC
:10198000771F2A95D2F78091290390912A03A0917D
:101990002B03B0912C038A019B01082719272A27C2
:1019A0003B27C901B80125C0223008F0B7C0DCCF01
:1019B000002329F0892F8F712EC00023D9F3892F9E
:1019C0008F710E94391BAAC0002381F0292F2F712B
:1019D00081E090E0A0E0B0E0BC01CD0104C0660F62
:1019E000771F881F991F2A95D2F703C060E070E027
:1019F000CB010E942D1B92C0002381F0192F1F7173
:101A0000812F0E94771B28E0129FC0011124836060
:101A100080939702812F0E94771B80C081E02C87E2
:101A20000E945E1B2C85223008F478C082E00E9460
:101A30005E1B74C0002339F0222309F4BBCF812F31
:101A40000E94582D6BC0222309F4B9CF893349F481
:101A50003FEF87EE93E0315080409040E1F700C0C7
:101A60000000812F0E94F12C59C0323FB1F028F4C0
:101A7000303F49F0313FF9F028C0343FB9F058F019
:101A8000353F71F022C0002309F451C09091270224
:101A900081E0892708C081E008270093270247C01A
:101AA000011145C081E08093270241C001113FC070
:101AB000109227023CC0002329F08091260288233F
:101AC00029F329C0222311F332C080912602222358
:101AD000C1F0882341F09091270281E0892780930B
:101AE000270210922602812F002319F00E94582D00
:101AF0001EC00E94F12C86E0F60111928A95E9F74A
:101B000016C08823A1F0011112C09091270281E034
:101B10008927809327021092260209C0F8E0AF1AA5
:101B2000B10804E0A016B10410F40E94C72BEE2007
:101B300009F405C18091970280FD01C1F60112826E
:101B40008595859585950E94771BC6010E94C405E1
:101B5000809197028595859585950E94391BEFC0E8
:101B6000033C8CE5180708F079CA06311C4509F4D6
:101B700039CCC2CC083CECE51E0799F4F601828111
:101B8000882309F4DCC06091A9022FEF621B08F4DE
:101B900060E021E04091AA028091A8020E945711C2
:101BA000CEC0093CFCE51F0778F5063C2CE5120782
:101BB00071F4F6018281882309F4C1C08091A802E2
:101BC00021E04091AA026091A9028C50E7CF073C26
:101BD0001C4570F4F6018281882309F4B0C080911D
:101BE000A80221E04091AA026091A902845FD6CFA9
:101BF000F6018281882309F4A2C06091A9022FEF27
:101C0000620F08F46FEFC5CF0A3C8CE5180779F432
:101C1000F6018281882309F492C04091AA022CE047
:101C2000421B08F440E021E06091A902B5CF0B3CD3
:101C30001C4560F4F6018281882309F480C040913C
:101C4000AA022CE0420F08F44FEFEDCFF60182819B
:101C5000882309F474C08091AB02833008F0D3C9A3
:101C60008F5FCFC9F6018281882309F468C00E9482
:101C700060108950853008F4FAC989E0F1C8F6018E
:101C80008281882309F45BC00E94601082508330F7
:101C900008F4EDC982E0E4C8F6018281882309F4E2
:101CA0004EC00E9460108650823008F4E0C986E081
:101CB000D7C8023DECE51E0761F4F6018281882356
:101CC000F1F10E9460108551823008F4D0C985E19D
:101CD000C7C8033D1C4560F4F6018281882379F171
:101CE0000E9460108F50853008F4C1C98FE0B8C8D9
:101CF000F6018281882319F188E1B2C80E3D2CE5F6
:101D0000120709F483C860F40C3D8CE5180709F448
:101D1000A2CB08F0ACCB053D1C4509F4B4CBECCB11
:101D20000A3FFCE51F0708F4E7CB01302DE5120759
:101D300008F4A5C901301D4509F4B8CBDDCB2D96BB
:101D40000FB6F894DEBF0FBECDBFDF91CF911F91CC
:101D50000F91FF90EF90DF90CF90BF90AF909F904A
:101D60008F9008959091F40292FF0DC0282F287152
:101D7000283019F4877F846006C0282F247124300E
:101D800011F48B7F886093FF0DC0282F28712831B4
:101D900019F4877E846106C0282F2471243111F440
:101DA0008B7E88612091F50220FF0DC0382F38719D
:101DB000383019F4877F816006C0382F3171313097
:101DC00011F48E7F886021FF0DC0282F28712831E3
:101DD00019F4877E816106C0282F2171213111F409
:101DE0008E7E886194FD877E0895CF92DF92EF9278
:101DF000FF926B017C010E94E81956985E98259825
:101E00002D9826982E9827982F9890E0FC013197CE
:101E1000E730F105A8F4EE59FF4F0C94B92F259A3D
:101E20002D9A0EC0259A2D9A269A2E9A09C0259A87
:101E30002D9A04C0259A2D9A269A2E9A279A2F9A7F
:101E4000C701B601FF90EF90DF90CF900895CF9338
:101E5000E82F873080F58091070190910801892B48
:101E600009F047C0CE2F64E670E080E40E948B2E1C
:101E70009093080180930701892BD1F464E670E008
:101E800082E10E94E22E9093080180930701892B42
:101E900079F481E090E001C0880FCA95EAF764E622
:101EA00070E080950E94E22E9093080180930701D4
:101EB000CF910C94372F90E0FC013797E730F10574
:101EC000C0F4E759FF4F0C94B92F209A289811C0FD
:101ED000219A29980EC0229A2A980BC0239A2B98EF
:101EE00008C0529A5A9805C0539A5B9802C03E9A0D
:101EF0004698CF910895CF93873008F03FC08091E6
:101F0000070190910801892B09F041C064E670E057
:101F100080E40E948B2E9093080180930701892B07
:101F200011F0C0E027C064E670E083E10E94E22E79
:101F30009093080180930701892B99F764E670E07C
:101F400081E40E948B2E9093080180930701892BD6
:101F500041F784E690E00E94122F97FF05C090930E
:101F6000080180930701DDCFC82FC09510920801AA
:101F7000109207010E94372F8C2F0AC09FB18FB19A
:101F8000807F869586959370892B809501C080E02F
:101F9000CF910895EF92FF920F931F93CF93DF930A
:101FA0008091A70280FF2EC0EFB6F090BC00F8949D
:101FB0008091BC008B7F8093BC008BB18C7F8BB9F0
:101FC0005098589A5198599A35E03A95F1F700008F
:101FD0008AB18C7F8AB985E08A95F1F70000519A21
:101FE0005998E5E0EA95F1F70000509A5898F5E025
:101FF000FA95F1F7000084E80E94D32BC2E3D3E006
:102000008E010DC080E090E0FC01EE5CFC4F11827F
:102010001082128204968C339105B1F7C5CFF3E09C
:102020000E361F0731F0F80181918F010E94D32BEA
:10203000F6CF5098589A35E03A95F1F7000051984C
:10204000599A85E08A95F1F70000EFBEF092BC0046
:10205000579A8BB18F779BB190682FB7F894E3E0D4
:10206000CE36DE0789F0399148E09BB9000000C008
:1020700037FF8BB9330F000000C000C000C08BB920
:1020800000C04A9591F7EBCF2FBFDF91CF911F9101
:102090000F91FF90EF9008959091A70290FF0FC0CD
:1020A00020E030E0F901EE5CFC4F818360834283E5
:1020B0002C5F3F4F2C333105A9F70C94CA0F0895BC
:1020C0008091A70280FF02C08695089580E0089560
:1020D0008091A702282F269530E02115310519F4AB
:1020E0008170826005C02532310524F081708864DA
:1020F0008093A7020895CF93DF9300D000D0CDB78F
:10210000DEB7AB01BC0149835A836B837C830E9499
:10211000681049815A816B817C8188E090E00F9042
:102120000F900F900F90DF91CF910C94612FE7EA01
:10213000F2E083E0808311828FEF828383831482B5
:1021400060817181828193810C947B10BF92CF92C8
:10215000DF92EF92FF920F931F93CF93DF93E82EBE
:10216000F62EE901E42FF0E0611106C0E456F94FC4
:10217000E491BE2E8E2F73C0262F30E0E456F94F27
:10218000E491FE2FCE2ED12C46E0849FC001112475
:102190000FEF10E0B8010E94912F4BEA4603D001E7
:1021A000479FB00D1124AE0DB11DAE0DB11D8A2F8C
:1021B000880FA80FC801821B930BC89EA001C99E5F
:1021C000500DD89E500D1124B52EAF9DC001112485
:1021D000892F99277801E81AF90AC701C89E70016A
:1021E000C99EF00CD89EF00C1124C8018A1B9109DD
:1021F000DC01A29FC001A39F900DB29F900D1124FE
:10220000892F9927081B190BC09E9001C19E300D84
:10221000D09E300D1124832F6230710591F04CF463
:1022200061157105E1F061307105B9F48E2FEF2D64
:1022300016C06430710569F044F06630710579F0BC
:102240000CC08E2FE52FB32E0AC0E52FBF2E8F2D89
:1022500006C0852FBE2EE32F02C0852FBF2CE98339
:102260008883BA82DF91CF911F910F91FF90EF90F9
:10227000DF90CF90BF900895CF93DF9300D000D030
:10228000CDB7DEB79091A70290FF0AC09E012F5FE5
:102290003F4F0E94A6104B8169818A810E944C1099
:1022A0000F900F900F900F90DF91CF9108955F9254
:1022B0006F927F928F929F92AF92BF92CF92DF9256
:1022C000EF92FF920F931F93CF93DF9300D000D034
:1022D000CDB7DEB7182F762E042F622E9091A7026D
:1022E00090FF6DC0E92FE695AE2FB0E0A05EBE4F27
:1022F0008C91809327039E7F923061F49E012F5F23
:102300003F4F812F0E94A6104B8169818A810E94D4
:102310004C1043C0823019F40091AA023EC08630AE
:1023200019F41091A80239C08930D9F38931A9F57F
:10233000E9518E2F8170582EE695F0E0E456F84F63
:10234000A590B49082E3C82E83E0D82EE12CF12C26
:10235000BB249FE0892E912CEA9CC001EB9C900D40
:10236000FA9C900D1124B4010E94912F812F5110DD
:1023700002C0860F01C0861B9601402F672D0E9468
:10238000A6108FEFE81AF80A84E0C80ED11C8FE07F
:10239000E816F10409F70E94CA0F1093A802709280
:1023A000A9020093AA02662051F06091A7027091E1
:1023B000A8028091A9029091AA020E947B100F901E
:1023C0000F900F900F90DF91CF911F910F91FF9081
:1023D000EF90DF90CF90BF90AF909F908F907F90C5
:1023E0006F905F9008959091A70290FF36C0917012
:1023F000811102C0926006C0853210F0986402C05C
:10240000880F982B9093A702662351F06091A70242
:102410007091A8028091A9029091AA020E947B105B
:102420006091A702669570E04BE050E083E191E097
:102430000E94F830892B19F01092280302C00E94E4
:102440005A2C81E08093240320E04091AA026091FD
:10245000A9028091A8020C945711089561E00C9490
:10246000F3118091A7028695815009F484E261E01E
:102470000C94F3118091A70286958F5F853208F046
:1024800081E061E00C94F3116091DE028CE090E059
:102490000C944F2FCF93DF9326E0729FF00111240D
:1024A00034E5839FE00DF11D1124E60FF11DEE0FC1
:1024B000FF1FE05FFE4FC591D491CE01C238D10518
:1024C00069F1B0F4C133D10509F475C048F4C932DB
:1024D000D10509F469C0CA32D10509F473C079C0C5
:1024E000C533D10509F459C0C933D105B9F071C05C
:1024F000C33ED10571F138F4C03ED105B1F0C23E02
:10250000D10511F166C0C63ED105B9F1C73ED1056E
:10251000C9F1C43ED10509F05CC024C02091F40289
:1025200020FD29C221FD27C22BC22091F40220FDEB
:102530001CC22091F50220FF23C28091F40284FD89
:10254000C6C183EE90E01CC22091F40222FF18C2A3
:10255000F4CF8091F40282FD0BC28091F50280FDE0
:102560000AC2EBCF2091F50221FF0AC28091F4024A
:1025700084FDADC187EE90E003C22091F40223FFF9
:10258000FFC1F4CF8091F40283FDF8C18091F50280
:1025900081FFECCF84EE90E0F3C12091F40225FF9F
:1025A000EFC189E290E0ECC12091F40225FFE8C17F
:1025B00085E390E0E5C12091F40226FFE1C18AE2C3
:1025C00090E0DEC12091F40226FFDAC181E390E0C1
:1025D000D7C1C11540E5D40708F047C0C11520E4B4
:1025E000D20708F034C1C83ED10518F5C03ED10568
:1025F00008F0C6C1C83AD10570F4C53AD10508F053
:10260000B1C0C130D10509F4BBC108F460C1249741
:1026100008F45DC1B5C1CF3BD10508F4AEC0C03CE4
:10262000D10508F454C1FE01EE0FFF1FE45EFA4F1E
:1026300003C1C11530E2D30760F4C11541E0D407EE
:1026400008F09EC1C03FD10508F441C1CE0190659C
:1026500097C1C11580E3D80708F0F1C0FE01FF70F3
:10266000EE0FFF1FE456F94FE7C0C11595E5D907F6
:1026700008F044C0C11524E5D20708F002C1C11515
:1026800032E5D30710F5C11541E5D40708F0E4C0E1
:102690008C2F837021E030E002C0220F331F8A9517
:1026A000E2F73C68CE0174E0969587957A95E1F75C
:1026B0008370382BEC2FEF70E695E69540E2E49FAF
:1026C000C0011124822B932B5BC12C2F26952695BC
:1026D000AE0143705527C115D34508F0C3C080E251
:1026E000289F9001112481E090E002C0880F991F7B
:1026F0004A95E2F7822B932B9C6842C1C1159AE55B
:10270000D907A8F4C11529E5D20708F0C9C0C11539
:1027100036E5D30708F4BBC0C11548E5D40708F473
:10272000D6C0FC2FEE27CF01806F906A29C1C1155A
:102730008BE5D80708F4CBC0C1159CE5D90708F490
:10274000C2C0CE0190568115904208F0C0C08D2FB6
:102750008F710E94B20EFE01FF27F0628F719F0100
:10276000382BAFC0C53AD10509F4B4C0C63AD1057B
:1027700009F0B3C082E890E403C1C83AD10509F476
:10278000AFC0C93AD10509F4AEC0CA3AD10509F4BF
:10279000ADC0CB3AD10509F4ACC0CC3AD10509F4AF
:1027A000ABC0CB3BD10509F4AAC0CC3BD10509F4A1
:1027B000A9C0CD3AD10509F4A8C0C03BD10509F4A0
:1027C000A7C0CE3AD10509F4A6C0CF3AD10509F485
:1027D000A5C0C13BD10509F4A4C0C23BD10509F491
:1027E000A3C0C33BD10509F4A2C0C43BD10509F481
:1027F000A1C0C53BD10509F4A0C0C63BD10509F471
:102800009FC0C73BD10509F49EC0C83BD10509F460
:102810009DC0C93BD10509F49CC0CD3BD10509F44D
:102820009BC0CE3BD10509F49AC0CA3BD10509F43F
:1028300099C080E094E4A4C085919491A1C0CE0198
:102840009927D3FF02C0986C9BC0906C99C0FE0181
:10285000FF70CF01906A94C0FC2FEE27CF01816FEB
:10286000906A8EC090E2299F9001112481E090E04F
:1028700002C0880F991F4A95E2F7822B932B9A6822
:102880007FC0FC2FEE27CF01846F906A79C08C2F18
:102890000E94B20E8F7190E0982F8827906270C0CE
:1028A0008C2F8F700E94B20EFE0194E0F695E79592
:1028B0009A95E1F7EF70F0E0FE2FEE27F0699F01A7
:1028C000282BC9015DC0CE019927906659C080E0D0
:1028D00090E056C081E890E453C083E890E450C093
:1028E00082EE94E44DC089EE94E44AC08AEE94E40A
:1028F00047C085EB94E444C086EB94E441C083EB8D
:1029000094E43EC084EB94E43BC087EB94E438C08D
:102910008CEC94E435C08DEC94E432C083E895E40B
:102920002FC08AE895E42CC082E995E429C084E9A7
:1029300095E426C081E296E423C083E296E420C0B9
:1029400084E296E41DC085E296E41AC086E296E42D
:1029500017C087E296E414C08FE694E411C080E7C4
:1029600094E40EC08AE296E40BC089E390E008C0CC
:1029700082EE90E005C080EE90E002C086EE90E02E
:10298000DF91CF910895CF92DF92EF92FF92CF9394
:10299000DF9300D000D0CDB7DEB70E94F50E6B01FB
:1029A0007C010E94E81990912D03992359F0198216
:1029B00093E09A838B838EEF8C8364E0CE01019643
:1029C0000E941317C701B6010F900F900F900F9040
:1029D000DF91CF91FF90EF90DF90CF90089580E24C
:1029E00090E0909308018093070180910502811186
:1029F0000EC00E94852E81E0809305022FEF83EDAB
:102A000090E3215080409040E1F700C0000064E670
:102A100070E080E40E948B2E909308018093070160
:102A2000892B09F04EC064E670E080E00E94E22E3F
:102A30009093080180930701892B09F042C064E656
:102A400070E080E00E94E22E9093080180930701DD
:102A5000892BB9F564E670E08FE30E94E22E909333
:102A6000080180930701892B61F50E94372F64E6E6
:102A700070E080E40E948B2E909308018093070100
:102A8000892BF9F464E670E08CE00E94E22E9093CA
:102A9000080180930701892BA1F464E670E080E0CF
:102AA0000E94E22E9093080180930701892B49F43C
:102AB00064E670E08FE30E94E22E90930801809319
:102AC00007010E94372F809107010895CF93DF936C
:102AD00056985E9825982D9826982E9827982F9886
:102AE000C8E8D0E08FEF90E099838883AAE8B0E04F
:102AF00011969C938E93ECE8F0E091838083259A65
:102B00002D9A2FEF80E792E0215080409040E1F72E
:102B100000C00000269A2E9A2FEF80E792E0215005
:102B200080409040E1F700C00000279A2F9A2FEFD5
:102B300080E792E0215080409040E1F700C0000023
:102B400025982D982FEF80E792E02150804090400B
:102B5000E1F700C0000026982E982FEF80E792E062
:102B6000215080409040E1F700C0000027982F9846
:102B70008091E20287702FEF829FC001112495950A
:102B800087959595879599279983888311969C9326
:102B90008E939183808356985E9825982D982698D9
:102BA0002E9827982F98DF91CF91089584B1807F38
:102BB00084B985B1807F85B98AB1837F8AB98BB1A9
:102BC000837F8BB93E984698089580B38C7080BB04
:102BD00081B3836F81BB08959F92AF92BF92CF92D2
:102BE000DF92EF92FF920F931F93CF93DF93809129
:102BF000070190910801892B91F0809104028F5F69
:102C00008093040281110BC00E94EF1490E0909316
:102C1000080180930701892B11F40E94661506EEC6
:102C200012E02DEEE22E22E0F22E6801C0E0912C9F
:102C300097E0A92EAC0E8C2F0E94270F8A2D0E94A0
:102C4000270F8C2F0E947B0FF6019081981721F09F
:102C50008083BB24B39401C0B12C8A2D0E947B0FCA
:102C6000F7019081981719F0808381E001C080E01E
:102C7000B82A9B280E94D615CF5FFFEFCF1ADF0A34
:102C80002FEFE21AF20AC73099F60E94AA186AEFEB
:102C900070E00E94912F9C01682F80910002882390
:102CA000E9F110920002E091DC02F091DD02DF0117
:102CB0001E9690E07BEF8AEFE82EF12C80818B3F0F
:102CC000A9F0482F50E0681728F0E901C41BD50B84
:102CD000AE0106C06701C41AD50AA601420F531FF0
:102CE0004E31510514F0708301C091E03196EA171E
:102CF000FB0721F790930002911002C0911110C0C0
:102D00001092FF01A091DC02B091DD0290910002CF
:102D1000EAEFF2E080E03EE03E0F0FC09110F0CF0E
:102D20008091FF018111ECCF20912E03809102024E
:102D300090910302211118C056C0E80129918E011B
:102D40004081421741F04C914B3F21F46C9320831A
:102D500091E001C081E0119631963E13EECF909341
:102D600000028093FF01E0CF892B31F425982D9844
:102D700026982E9827982F9880910202909103020E
:102D80009170892B79F480910102882319F026989B
:102D90002E9802C0269A2E9A9091010281E08927EE
:102DA0008093010280910202909103028130984742
:102DB00080F010922E036091290370912A03809174
:102DC0002B0390912C030E94F50E10920302109297
:102DD00002028091020290910302019690930302F5
:102DE0008093020210C0892B71F01092030210929E
:102DF00002026091290370912A0380912B03909124
:102E00002C030E94F50E892DDF91CF911F910F9118
:102E1000FF90EF90DF90CF90BF90AF909F9008957C
:102E20008091AF0208952091D202243099F423E0DA
:102E30002093E90070E040E050E00E94A72388233F
:102E400021F010922D0310922E038091E8008E77CE
:102E50008093E8000895803F39F480910B0387FF49
:102E60006CC010920B0369C0813F29F480910B0361
:102E70001816BCF362C090910A03823F29F497FFB1
:102E80005CC010920A0359C0833F19F41916CCF3A1
:102E900054C0893F41F480910C0318160CF04DC0CA
:102EA00010920C034AC08A3F29F480910C0387FFDB
:102EB00044C0F6CF8B3F39F480910D0387FF3DC0AE
:102EC00010920D033AC08C3F29F480910D0318161F
:102ED000BCF333C0843F21F4809109038E7F17C077
:102EE000853F21F4809109038D7F11C0863F21F435
:102EF000809109038B7F0BC0873F21F480910903E8
:102F0000877F05C0883F31F4809109038F7E8093CD
:102F1000090313C08D3F21F48091A4028E7F0BC062
:102F20008E3F21F48091A4028D7F05C08F3F29F44C
:102F30008091A4028B7F8093A40280910A03811167
:102F40000EC080910B0381110AC080910C03811186
:102F500006C080910D03811102C010920E030895E6
:102F60008091A40280FD16C081FD16C082FD18C0AC
:102F700080910E03882391F0883290F428E0829F9C
:102F8000C001112468E270E00E94A52F862F672BF4
:102F900029F007C082E0089584E0089581E0089553
:102FA00088E008958091A40280FD14C081FD14C0C2
:102FB00082FD16C080910E03882381F0843180F455
:102FC00023E2829FC001112464E170E00E94A52FDA
:102FD000862F089588E0089581E1089585E0089599
:102FE00083E20895803F21F40E94D217819504C0A6
:102FF000813F29F40E94D21780930B030895823FEA
:1030000021F40E94D217819504C0833F29F40E94C5
:10301000D21780930A030895893F19F40E94B017CC
:1030200005C08A3F31F40E94B017819580930C034C
:1030300008958B3F21F40E94B017819504C08C3F06
:1030400029F40E94B01780930D030895843F21F462
:1030500080910903816017C0853F21F480910903A5
:10306000826011C0863F21F48091090384600BC007
:10307000873F21F480910903886005C0883F31F4BF
:103080008091090380618093090308958D3F21F4A5
:103090008091A40281600BC08E3F21F48091A40234
:1030A000826005C08F3F29F48091A40284608093E0
:1030B000A402089578941F920F920FB60F921124D4
:1030C0008F939F93AF93BF938091A0029091A102A1
:1030D000A091A202B091A3020196A11DB11D8093FF
:1030E000A0029093A102A093A202B093A302BF9169
:1030F000AF919F918F910F900FBE0F901F901895D9
:10310000CF92DF92EF92FF920F931F932FB7F89415
:103110004091A0025091A1026091A2027091A3027D
:103120002FBF6A017B01EE24FF248C0120E030E0F8
:10313000C016D106E206F30610F4415051099A0177
:10314000281B390BC9011F910F91FF90EF90DF9061
:10315000CF9008952FB7F8948091A0029091A1028A
:10316000A091A202B091A3022FBF0895E091F702AF
:10317000F091F802309749F082E0809308030480D0
:10318000F581E02D88E093E009950E94AA189093BC
:10319000100380930F0308951F920F920FB60F92A2
:1031A00011248F939F93AF93BF938091F902811164
:1031B00013C08091A0029091A102A091A202B091AF
:1031C000A3024196A11DB11D8093A0029093A1027C
:1031D000A093A202B093A302BF91AF919F918F9150
:1031E0000F900FBE0F901F9018952091060122237B
:1031F00021F02091F40227FD04C0FC0132960896CC
:1032000019C0262F2695269526952E31C0F4FC014F
:10321000E20FF11D677081E090E001C0880F6A95B0
:10322000EAF7809592818923828308953196E81781
:10323000F90729F020812613F9CF1082F7CF0895DE
:1032400020910601222321F02091F40227FD05C0E0
:10325000FC0132962FEF30E019C0262F26952695D7
:1032600026952E3120F5FC01E20FF11D677081E0FB
:1032700090E001C0880F6A95EAF79281892B8283DA
:1032800008952F3F39F03F5F363041F041914613AA
:10329000F8CF0DC04111F7CF232FF5CF2F3F39F0D5
:1032A000FC01E20FF11D27FDFA9562830895089550
:1032B000CF9384E090E00E943B2FC82F81E290E002
:1032C0000E943B2F2C2F30E0A901582BCA01CF912F
:1032D000089580E090E00E94492F21E08F3E9E4FAC
:1032E00009F020E0822F08956FEE7EEF80E090E0FD
:1032F0000E946D2F60E082E090E00E944F2F60E01E
:1033000083E090E00E944F2F10929C0210929D0249
:1033100010929E0210929F0260E084E090E00E9472
:103320004F2F60E081E290E00E944F2F60E085E047
:1033300090E00E944F2F60E086E090E00E944F2FC7
:103340006FEF87E090E00E944F2F40E050E0BA011D
:1033500088E090E00E94612F60E08DE090E00E94A4
:103360004F2F40E050E0BA0188E190E00E94612FC9
:1033700060E087E190E00E944F2F40E050E0BA010A
:103380008CE190E00E94612F60E080E290E00E947A
:103390004F2F1092E2021092E3021092E402109278
:1033A000E50284E080618093E2024091E202509164
:1033B000E3026091E4027091E5028FE090E00E94E8
:1033C000612F40E050E0BA0183E190E00C94612F5E
:1033D000CF92DF92EF92FF926C01EE24FF24C11492
:1033E000D104E104F10421F0C701B60120E101C0DC
:1033F00020E0C72ED82EE92EFF24C114D104E10409
:10340000F10419F0285FC701B6016B017C0154E09B
:10341000F694E794D794C7945A95D1F7C114D10480
:10342000E104F10419F02C5FC701B6016B017C01C6
:1034300042E0F694E794D794C7944A95D1F7C11423
:10344000D104E104F10419F02E5FC701B601DC01DB
:10345000CB01B695A79597958795892B8A2B8B2BB2
:1034600009F02F5F822FFF90EF90DF90CF900895AB
:1034700080919B02811110929B0208959091990274
:1034800080919A02892B20919802982F922B9093E9
:10349000060280919B028823D9F0892B8093060233
:1034A00080910601882331F08091F40287FF02C0E9
:1034B0008EE101C086E0E8E0F2E090E0815028F083
:1034C00021912223D9F39F5FF9CF91110E94381ADD
:1034D000E091F702F091F8023097A9F0809106018F
:1034E000882359F08091F40287FF07C0809106027B
:1034F0008093070285E0809306020280F381E02D2D
:1035000086E092E009940895BF92CF92DF92EF9205
:10351000FF920F931F93CF93DF938C01C0909C0277
:10352000D0909D02E0909E02F0909F02809129032E
:1035300090912A03A0912B03B0912C03C82AD92A79
:10354000EA2AFB2ACFE1D0E0D701C6010C2E04C045
:10355000B695A795979587950A94D2F780FF07C0EF
:10356000BC2EB8018C2F0E944A12019719F42197A2
:1035700058F7B12C8B2DDF91CF911F910F91FF90B8
:10358000EF90DF90CF90BF900895CF93DF93EC0141
:103590000E94841ABE010E944A12DF91CF910895C1
:1035A000292F220F920F990F890F682F6695669524
:1035B0006695982F977085E0689FB001112440E0D0
:1035C00050E080E0FA01E60FF71FE05AFD4F20813E
:1035D00030E0092E02C0369527950A94E2F7217053
:1035E0003327042E01C0220F0A94EAF7822B4F5F83
:1035F0005F4F4530510531F70895292F220F920F63
:10360000990F890FA82FA695A695A695877051E0CA
:1036100001C0550F8A95EAF785E0A89FD0011124D3
:1036200020E030E070E0F901EA0FFB1FE05AFD4FA7
:103630004081CB01022E02C0969587950A94E2F74D
:1036400081709927819584278523842780832F5F24
:103650003F4F2530310539F708950E94C314609318
:10366000290370932A0380932B0390932C030C94CB
:10367000972C0F931F9341E050E060E070E004C08E
:10368000440F551F661F771F8A95D2F740955095B6
:10369000609570958091290390912A03A0912B0346
:1036A000B0912C038A019B01082319232A233B2371
:1036B000C901B8011F910F910C942D1B2091970205
:1036C0008095822380939702982F977079F430E049
:1036D000482F082E000C550B2417350739F0859517
:1036E000859585950E94391B1092970208950F9336
:1036F0001F9341E050E060E070E004C0440F551FAC
:10370000661F771F8A95D2F78091290390912A032B
:10371000A0912B03B0912C038A019B01082B192B3C
:103720002A2B3B2BC901B8011F910F910C942D1B23
:1037300060939C0270939D0280939E0290939F02DF
:103740000C94972C80915F0290912E02891719F0AA
:103750008F5F8770FBCF089580912D0282958F70C7
:1037600009F054C080912A02882309F44FC0809147
:103770005F02A0912E02609128027091290240916F
:103780002B0250912C02B6E08A1709F43FC090E05A
:1037900041155105C1F17F3F11F46F3FA1F1B89F71
:1037A000F001B99FF00D1124E15DFD4F21817213ED
:1037B0002AC02081621327C02281211124C02381C5
:1037C00034812417350710F421503109241B350B9F
:1037D000283C3105C0F420912D022F7020612093E8
:1037E0002D0226E0289FF001299FF00D1124EC5CAA
:1037F000FD4F80818F708061808388E292E00E941B
:10380000C4050C94A21B01968770BECF0895BF9289
:10381000CF92DF92EF92FF920F931F93CF93DF939C
:10382000CDB7DEB761970FB6F894DEBF0FBECDBF40
:103830008C0185E0F801DE011D9601900D928A95BC
:10384000E1F7D8013C9111962C9111971296EC90CA
:1038500012971396CD90DC901497509128026091A6
:10386000290280912B0290912C02009709F44FC1FC
:103870006F3F19F45F3F09F44AC1B0902A02BB20A0
:1038800009F4ECC040912D02C816D90628F0F601C3
:10389000E81BF90BCF0104C0809590958C0D9D1D00
:1038A000FF24F394883C910548F0F12C407F09F007
:1038B0009FC088E292E00E94C40521C1842F807FCE
:1038C00009F044C0621312C0531310C0E1100EC0BF
:1038D0004F70406140932D0288E292E00E94C4053F
:1038E00080912D02D80115968C932EC0CD2819F108
:1038F0002F3F11F43F3FF9F0FE2CE1101CC08091E6
:103900005F0240912E0256E0841709F458C090E0FF
:10391000589FF001599FF00D1124E15DFD4F618129
:10392000261306C06081361303C06281611103C093
:1039300001968770E9CFFE2CEE2009F421C1809119
:103940002D02816080932D02F12C1AC162130AC0EE
:10395000531308C0E11006C080912D02D8011596BE
:103960008C93B0C03D872E878D859E850E94702CDC
:103970008823D1F1EE20C1F120912D02822F829572
:103980008F7090E0029774F0809128029091290244
:1039900098878F831986DB86CA862C87CE01079687
:1039A0000E94C40586E0F801A8E2B2E001900D9201
:1039B0008A95E1F70E94AC1BFF24F394E1C03D8798
:1039C0002E878D859E850E94C51A292F22952F70DE
:1039D00030E0223031050CF0C7C09F7009F0C1C043
:1039E000805E883008F4CCC0C8010E94C405E4CFD2
:1039F000621314C0531312C0E11010C080912D0245
:103A0000F8018583C8010E94C40586E0E8E2F2E07F
:103A1000DF011D928A95E9F7FB2CB2C03D872E8706
:103A20008D859E850E94702C8823F1F2EE20E1F2B4
:103A300020912D02822F82958F7090E002970CF4D6
:103A4000B1CF80912802909129029A8389831B82A9
:103A5000DD82CC822E83CE010196A2CFC816D90674
:103A600038F0C81AD90AB8ECCB16D10450F007C008
:103A7000809590958C0D9D1D883C910510F0F12C42
:103A80003EC0FE2CEE2009F4AFCF621327C05313C3
:103A900025C020912D0220FD18C0822F82958F70A5
:103AA000482F50E04115510581F0F80125834F3032
:103AB000510541F08F5F982F9295907F822F8F70E4
:103AC000892B8583C8010E94C40586E0F801A8E21D
:103AD000B2E001900D928A95E1F752C03D872E87A2
:103AE0008D859E850E94702C81115CCF80912D0266
:103AF000816080932D02C8010E94C40541C0E8E2A4
:103B0000F2E086E0DF011D928A95E9F739C0EE20E8
:103B100009F46ACF3D872E878D859E850E94702C83
:103B2000F82E882309F460CF86E0F801A8E2B2E01D
:103B300001900D928A95E1F78091280290912902D7
:103B40000E94C51A92959F70963041F48091270289
:103B500091E0892780932702909326020E94AC1B54
:103B60000FC081113DCF0CC0243031050CF03CCF8B
:103B70009F7009F435CFF8019581907F09F030CF1F
:103B80008F2D61960FB6F894DEBF0FBECDBFDF91CB
:103B9000CF911F910F91FF90EF90DF90CF90BF904A
:103BA00008958091D40287FF11C08091E80082FDC2
:103BB00005C08091D2028111F8CF11C08091E80038
:103BC0008B770BC08091D202882349F08091E80066
:103BD00080FFF8CF8091E8008E778093E800089509
:103BE000982F973058F59093E900981739F0709115
:103BF000EC002091ED005091F00003C0242F762FAF
:103C000050E021FF19C03091EB003E7F3093EB0074
:103C10003091ED003D7F3093ED003091EB0031604D
:103C20003093EB007093EC002093ED005093F00084
:103C30002091EE0027FF07C09F5FD3CF8F70809346
:103C4000E90081E0089580E008952091DA02309142
:103C5000DB022617370748F06115710539F420910A
:103C6000E8002E772093E80001C0B901FC0120E0B4
:103C70006115710591F18091D202882309F440C049
:103C8000853009F43FC08091E80083FD3DC08091FC
:103C9000E80082FD2FC08091E80080FFE9CF2091ED
:103CA000F3008091F20090E0922B6115710559F0BC
:103CB0008830910540F424912093F10031966150B1
:103CC00071090196F2CF21E0089709F020E0809178
:103CD000E8008E778093E800CBCF2111CCCF0AC0CB
:103CE0008091D202882361F0853061F08091E800F4
:103CF00083FD0AC08091E80082FFF2CF80E0089542
:103D000082E0089583E0089581E008952091DA0229
:103D10003091DB022617370748F06115710539F439
:103D20002091E8002E772093E80001C0B90140E01F
:103D300061157105A9F12091D202222309F443C033
:103D4000253009F442C02091E80023FD40C02091B5
:103D5000E80022FD32C02091E80020FFE9CF409129
:103D6000F3002091F20030E0342BFC01CF0161150B
:103D7000710559F02830310540F481918093F100AC
:103D8000615071092F5F3F4FF1CF41E0283031057D
:103D900009F040E02091E8002E772093E800C8CF9A
:103DA0004111C9CF0AC08091D202882361F08530C9
:103DB00061F08091E80083FD0AC08091E80082FFF5
:103DC000F2CF80E0089582E0089583E0089581E0D5
:103DD00008951F93CF93DF93CDB7DEB7AA970FB6A1
:103DE000F894DEBF0FBECDBFE4EDF2E088E08E0FA9
:103DF0009091F10091938E13FBCF8091D502893081
:103E0000B9F150F4823009F4A5C0833009F45FC0E1
:103E1000813009F0EEC00CC08B3009F470C008F49A
:103E200088C0823409F4AEC0853409F4C5C0E1C04D
:103E30008091D402813A09F0DCC08091E800877F4C
:103E40008093E8008091D8029091D902892B21F4C7
:103E500060E280EB92E003C060E080E090E070E020
:103E60000E94861E8091E8008B778093E800C1C095
:103E70008091D402813209F0BCC08091D802909127
:103E8000D902029708F0B5C08091E800877F80933F
:103E9000E8008091E80082FD05C08091D202811186
:103EA000F8CFA7C02091F3008091F20090E0922B10
:103EB000029729F48091F1008B7F813021F4809169
:103EC000F1008093AF028091E8008B7758C0809119
:103ED000D402813A09F08DC08091D8029091D90224
:103EE000892B09F086C08091E800877F8093E800E5
:103EF0008091E80080FFFCCF809106013BC080915B
:103F0000D402813209F075C08091D8029091D90213
:103F1000892B09F06EC08091E800877F8093E800CC
:103F20000E94D11D8091D602809306010E94B22C7E
:103F300060C08091D402813209F05BC08091E800BA
:103F4000877F8093E8000E94D11D8091D7028093E3
:103F5000AE024FC08091D402813A09F04AC08091EC
:103F6000E800877F8093E8008091E80080FFFCCF25
:103F70008091AE028093F1008091E8008E7780936B
:103F8000E8002FC08091D402803C99F58091D8023E
:103F90009091D902029741F58091D6029091D70273
:103FA000019711F58091E800877F8093E8006BE12D
:103FB00070E083E598E013C08091D402803CC9F49E
:103FC0008091D8029091D902079771F48091E8000E
:103FD000877F8093E80062EB70E081EA97E00E94BF
:103FE000251E0E94D11D05C08091EB008062809348
:103FF000EB008091E80083FFA2C18091D4029091F0
:10400000D502492F50E04A30510508F098C1FA0115
:10401000E059FF4F0C94B92F803821F0823809F015
:104020008EC108C08091D0029091D102992389F06D
:1040300082600FC08091D8028F70873008F07FC1F6
:104040008093E9008091EB0085FB882780F910922E
:10405000E9009091E800977F9093E8008093F10049
:104060001092F10036C1282F2D7F09F068C18823F6
:1040700019F0823061F063C18091D602813009F07D
:104080005EC1933009F080E08093D1022EC0809110
:10409000D60281112AC08091D8028F702FEF280F8D
:1040A000263008F04CC18093E9002091EB0020FFFE
:1040B0001CC0933021F48091EB00806214C0909179
:1040C000EB0090619093EB0021E030E0A90102C089
:1040D000440F551F8A95E2F74093EA001092EA00D8
:1040E0008091EB0088608093EB001092E900809152
:1040F000E800877FF1C0811122C11091D6021F779D
:104100008091E3008078812B8093E3008091E80028
:10411000877F8093E8000E94D11D8091E80080FF96
:10412000FCCF8091E30080688093E300111102C00E
:1041300082E001C083E08093D20201C180588230C6
:1041400008F0FDC08091D6029091D7028C3D53E0DB
:10415000950779F583E08A838AE289834FB7F894DB
:10416000DE01139620E03EE051E2E32FF0E05093B1
:104170005700E49120FF03C0E295EF703F5FEF70BE
:104180008E2F90E0EA3010F0C79601C0C0968D9354
:104190009D932F5F243149F74FBF8091E800877FBF
:1041A0008093E8006AE270E0CE0101960E94861ECC
:1041B0007EC04091D8025091D902292F3327233055
:1041C000310511F16CF42130310509F4C7C02230FA
:1041D000310509F0B4C062E570E08FE699E060C097
:1041E0002132310509F43EC02232310509F447C0BD
:1041F0002F30310509F0A3C0E1E0FAE0E4916E2F21
:1042000070E08FEF99E048C0992781309105D1F097
:104210005CF4892B09F093C0EBEFF9E0E4916E2F89
:1042200070E08BEF99E038C08230910599F00397E8
:1042300009F085C0E3EDF9E0E4916E2F70E083EDC5
:1042400099E02AC0E1EFF9E0E4916E2F70E081EF90
:1042500099E022C0E9EDF9E0E4916E2F70E089ED7C
:1042600099E01AC04115510509F47DC0413051054E
:1042700009F065C069E070E08AE999E011C0411574
:10428000510509F475C04130510509F058C060EC82
:1042900070E08FE698E004C06115710509F44FC025
:1042A0002091E800277F2093E8000E94251E80913E
:1042B000E8008B778093E80042C0803809F03FC067
:1042C0008091E800877F8093E8008091D3028093FB
:1042D000F1008091E8008E778093E8000E94D11D64
:1042E0002EC081112CC01091D602123040F5809161
:1042F000E800877F8093E8001093D3020E94D11DCD
:10430000111106C08091E30087FD02C081E001C069
:1043100084E08093D20242E061EC81E00E94F01DD3
:1043200042E261EC82E00E94F01D42E361EC83E036
:104330000E94F01D42E360EC84E00E94F01D809139
:10434000E80083FF1AC08091E800877F8093E8002F
:104350008091EB0080628093EB000FC062E170E01F
:1043600081EC99E09DCF69E070E081E899E098CF19
:1043700060E470E08FE299E093CFAA960FB6F894CC
:10438000DEBF0FBECDBFDF91CF911F9108951F9269
:104390000F920FB60F9211242F933F934F935F9379
:1043A0006F937F938F939F93AF93BF93CF93DF933D
:1043B000EF93FF93C091E900CF708091EC00D82F6C
:1043C000D17080FDD0E81092E9008091F000877FE5
:1043D0008093F00078940E94E91E1092E900809189
:1043E000F00088608093F000CD2BCF70C093E9007F
:1043F000FF91EF91DF91CF91BF91AF919F918F91FD
:104400007F916F915F914F913F912F910F900FBED0
:104410000F901F901895E8EDF0E080818E7F8083EB
:104420001092E2001092DA001092E100A0EEB0E0EB
:104430008C9181608C9380818F77808319BCA7EDEC
:10444000B0E08C918E7F8C9380818F7E80831092E0
:10445000A6020895CF92DF92EF92FF920F931F93DF
:10446000CF93DF93C8EDD0E088818F7E8883E7ED1E
:10447000F0E080818160808384E082BF81E080936E
:10448000A60288818E7F888302EE10E0F8011082F8
:104490001092DA0081EEC82ED12CF60110828881AC
:1044A0008F77888388818068888388818F7D8883DF
:1044B00019BC1092D2021092D3021092D102109223
:1044C000D00290EEE92EF12CF70180818B7F808362
:1044D00088818160888342E060E080E00E94F01D76
:1044E000F60180818E7F8083F801808181608083E6
:1044F000808188608083F70180818E7F80838881BE
:1045000080618883DF91CF911F910F91FF90EF9091
:10451000DF90CF9008951F920F920FB60F92112443
:104520002F933F934F935F936F937F938F939F93BB
:10453000AF93BF93EF93FF938091E10082FF09C097
:104540008091E20082FF05C08091E1008B7F809323
:10455000E1008091DA0080FF2AC08091D80080FFBE
:1045600026C08091DA008E7F8093DA008091D90096
:1045700080FF18C080E189BD82E189BD09B400FED9
:10458000FDCF81E08093D2028091A60281110FC0FD
:104590000E940B220E942A228091E2008460809374
:1045A000E20005C019BC1092D2021092A6028091BE
:1045B000E10080FF17C08091E20080FF13C080916E
:1045C000E2008E7F8093E2008091E2008061809320
:1045D000E2008091D80080628093D80019BC85E009
:1045E0008093D2028091E10084FF43C08091E20079
:1045F00084FF3FC080E189BD82E189BD09B400FE2E
:10460000FDCF8091D8008F7D8093D8008091E1000C
:104610008F7E8093E1008091E2008F7E8093E200A4
:104620008091E20081608093E2008091D302882330
:1046300011F084E007C08091E30087FD02C081E0B3
:1046400001C083E08093D2020E94B22C0E94C72B4B
:104650001092AD028091AC02882349F08091A702AC
:1046600081608093A70260E086950E94F3110E940A
:104670005A2C8091E10083FF27C08091E20083FFE4
:1046800023C08091E100877F8093E10082E08093E6
:10469000D2021092D3028091E1008E7F8093E100DC
:1046A0008091E2008E7F8093E2008091E200806141
:1046B0008093E20042E060E080E00E94F01D809183
:1046C000F00088608093F000FF91EF91BF91AF916F
:1046D0009F918F917F916F915F914F913F912F911A
:1046E0000F900FBE0F901F9018952091E40030910D
:1046F000E50095E64091EC00842F817040FF22C0D8
:104700008091E80080FD1CC08091D202882391F046
:10471000853091F08091EB0085FD10C04091E40060
:104720005091E5004217530729F39A01915011F770
:1047300084E0089582E0089583E0089581E008957B
:1047400080E008954091E80042FFDECF0895CF92C7
:10475000DF92FF920F931F93CF93DF931F92CDB7FA
:10476000DEB7F82E8B0199830E9475239981811100
:104770001CC0CF2CD92E01151105B1F08091E80095
:1047800085FD0AC08091E8008E778093E8000E9442
:104790007523882381F309C0F60181916F0180930D
:1047A000F10001501109E7CF80E00F90DF91CF9128
:1047B0001F910F91FF90DF90CF9008958091A502F7
:1047C000811107C08091D202843011F081E00895F8
:1047D00082E00895CF93DF9300D01F92CDB7DEB76C
:1047E0002091D202243031F523E0298380589109A9
:1047F0009B838A8382E08093E9008FEF9091E800A9
:10480000815095FD06C095ED9A95F1F70000811154
:10481000F5CF8091E80085FF0DC040E050E063E0F7
:1048200070E0CE0101960E94A7238091E8008E7768
:104830008093E8000F900F900F90DF91CF91089533
:104840000F931F93CF93DF9300D01F92CDB7DEB7A6
:104850008C010E94DE23823011F0843021F584E047
:1048600089831B830A8382E08093E9008FEF909114
:10487000E800815095FD06C095ED9A95F1F700008E
:104880008111F5CF8091E80085FF0DC040E050E038
:1048900063E070E0CE0101960E94A7238091E800BA
:1048A0008E778093E8000F900F900F90DF91CF915B
:1048B0001F910F910895CF93DF93EC010E94DE23A7
:1048C000823011F08430F9F482E08093E9009FEFA8
:1048D0008091E800915085FD06C085ED8A95F1F73D
:1048E00000009111F5CF8091E80085FF0CC040E0F9
:1048F00050E066E070E0CE010E94A7238091E800BE
:104900008E778093E800DF91CF910895CF93DF9366
:10491000EC010E94DE23823011F08430D9F58091C1
:104920000601882339F08091F40287FF03C060E21A
:1049300082E002C068E081E08093E9008FEF90910F
:10494000E800815095FD06C095ED9A95F1F70000BD
:104950008111F5CF8091E80085FF1CC08091060190
:10496000811105C040E050E068E070E003C070E0F5
:1049700040E050E0CE010E94A7238091E8008E77AE
:104980008093E80080E2FE01A0EBB2E001900D927E
:104990008A95E1F7DF91CF910895CF93DF93CDB75B
:1049A000DEB7CC55D1090FB6F894DEBF0FBECDBF30
:1049B00084B7877F84BF0FB6F894A8958091600074
:1049C000886180936000109260000FBE80E8809341
:1049D00061001092610085B7806885BF85B78068E7
:1049E00085BF0E940B220E942A228091E2008460EF
:1049F0008093E20078948091D2028823A1F01091F4
:104A0000E9001F709091EC00892F817090FD80E883
:104A1000182B1092E9008091E80083FD0E94E91EA6
:104A20001F701093E90082E084BD93E095BD9AEF7A
:104A300097BD80936E000E94EF1490E09093080160
:104A4000809307010E94D6150E94E515A6EEB2E0FC
:104A5000EAEFF2E01EE0212E2E0E11921D922E1290
:104A6000FCCF8EE090E00E94CB2F8093DC029093ED
:104A7000DD02FC010E962BEF2193E817F907E1F711
:104A80000E946919811102C00E9474198CE090E0A3
:104A90000E943B2F90E0A0E0B0E08093DE02909374
:104AA000DF02A093E002B093E10289EA80938000E4
:104AB00089E08093810024982C983F988AB18F7C5C
:104AC0008AB96E98479A8BB180638BB9769A8FE0DA
:104AD00090E00E94432F6093E2027093E302809380
:104AE000E4029093E50267702FEF629FB0011124FA
:104AF000759567957595679577277093890060938D
:104B0000880070938B0060938A0070938D0060938F
:104B10008C000E9466150E946919811102C00E94D2
:104B2000741982E090E00E943B2F809312030E9450
:104B300058199093F5028093F40283E090E00E946C
:104B40003B2F682F70E080E090E00E94981B8091DE
:104B5000F602811138C080911203816080931203A4
:104B60000E946919811104C00E9474190E94971053
:104B700088E090E00E94432F6093A7027093A80200
:104B80008093A9029093AA026E7F71F40E949710FD
:104B900088E090E00E94432F6093A7027093A802E0
:104BA0008093A9029093AA020E9468101092280391
:104BB0008091A70280FF04C060E086950E94F311F7
:104BC00081E08093F60289E091E09093F80280936F
:104BD000F70271E4472E512C4C0E5D1E32E0430E5D
:104BE000511C8091D202853009F065C08091D202BB
:104BF000843009F441C01092F90220E488E190E089
:104C00000FB6F894A895809360000FBE20936000C3
:104C1000109228038091AD02811117C081E080932A
:104C2000AD028091A702982F91709093AC028E7F75
:104C30008093A7024FEF80E792E041508040904080
:104C4000E1F700C000000E94CA0F83B7817F846033
:104C500083BF83B7816083BF7894889583B78E7F45
:104C600083BF0FB6F894A895809160008861809307
:104C70006000109260000FBE8091D102882309F479
:104C8000B0CF0E94EF1490E0909308018093070149
:104C90000E94D6150E94E515EAEFF2E011922E125D
:104CA000FDCF0E94EC15EAEFF2E08191811163C221
:104CB0002E12FBCF96CF0E94EC1553E1C52E53E088
:104CC000D52E6AEF662E62E0762E312C20E0F301BD
:104CD000A1903F01F601E080EA2409F450C000E011
:104CE00010E0F12CB12CC701002E02C095958795DC
:104CF0000A94E2F780FF3DC062960FAF6297639619
:104D00002FAF639788248394912C002E02C0880CC7
:104D1000991C0A94E2F7A4014A215B2181E0452B0A
:104D200009F480E064968FAF64976D962FAF6D970E
:104D30000E94AA188160782F66969FAF8EAF669703
:104D400062964FAD629763965FAD639764966FAD61
:104D5000649766968FAD66970E94C72AF601808198
:104D60008826808233946D962FAD6D97F3E0F3150E
:104D700078F10F5F1F4F0630110509F0B4CF2F5F98
:104D80003FEFC31AD30A2E3009F0A1CF311020C053
:104D90008FEF67968FAF679768968FAF6897699622
:104DA0001FAE69970E94AA188160782F6B969FAFFB
:104DB0008EAF6B9767964FAD679768965FAD6897B4
:104DC00069966FAD69976B968FAD6B970E94C72AF6
:104DD00080910F03909110030E9480189C01909184
:104DE0000E03992321F02431310508F478C0809115
:104DF0000A0310910B0381110BC01111D2C1209134
:104E00000C032111CEC120910D032111CAC167C02D
:104E10009F3F19F09F5F90930E03181624F40E9491
:104E2000D21780930A0380910A0387FF05C00E946E
:104E3000D217819580930A03111624F40E94D21789
:104E400080930B0380910B0387FF05C00E94D2174C
:104E5000819580930B0330910A033323E1F0209175
:104E60000B032223C1F045EB3403C0011124892F29
:104E7000990F990B009709F481E080930A0335EBB1
:104E80002303C0011124892F990F990B009709F46E
:104E900081E080930B0380910C03181624F40E9488
:104EA000B01780930C0380910C0387FF05C00E940C
:104EB000B017819580930C0380910D03181624F48C
:104EC0000E94B01780930D0380910D0387FF05C0EA
:104ED0000E94B017819580930D030E94B61810911F
:104EE00011030E94C72B181721F00E94C72B809333
:104EF000110380912803882309F4A0C0809127031F
:104F0000E091A702E695E81BE0932303823049F481
:104F1000F0E0EA5BF54FE4910E2F10E023EB3AE26C
:104F200049C0863049F4F0E0ED5BF54FE4910E2F77
:104F300010E023EA3AE23EC0893051F4E695F0E011
:104F4000E05CF54FE4910E2F10E027E33AE232C027
:104F50008F3051F4E695F0E0E35CF54FE4910E2FCD
:104F600010E02BEB39E226C0853149F4F0E0E65C35
:104F7000F54FE4910E2F10E02FE539E21BC0883188
:104F800081F0833239F4E8E3FAE00591149121E6E7
:104F90003AE210C0843251F404EF11E022EF38E21B
:104FA00009C008EE13E02AE239E204C000ED17E080
:104FB00025ED38E2809124038823E9F01092240340
:104FC0006D962FAF6D976C963FAF6C970E94AA18A5
:104FD000A80140955095840F951F909322038093CC
:104FE000210310922603109225036C963FAD6C9717
:104FF0006D962FAD6D9780912103909122036D9650
:105000002FAF6D976C963FAF6C970E9480186D968E
:105010002FAD6D976C963FAD6C978017910770F030
:10502000E0912103F09122030E0F1F1F1093220322
:105030000093210381E293E0F90109958091D20266
:10504000843009F0CECD8093E9008091E80082FFA2
:10505000C8CD8091E80085FF25C00E947523882374
:1050600011F091E020C000E410E09E012F5F3F4F5F
:1050700079018091E80085FD0AC08091E8008B7776
:105080008093E8000E947523882341F0EACF809145
:10509000F100F70181937F010150110901151105FC
:1050A00041F7DFCF90E08091E8008B778093E800B4
:1050B000992309F496CD8981811115C090912E0311
:1050C000992369F110922E0381E080932D0322969B
:1050D0001FAE229723961FAE23978EEF24968FAF95
:1050E000249763E042C08130D1F422961FAE22970C
:1050F00084E023968FAF23978DE0E5E4F1E0D201C1
:1051000001900D928A95E1F78EEF61968FAF6197CE
:1051100060E1CE018F5B9F4F0E94131762CD90918B
:105120002D039923E9F0823009F05BCD60912903CA
:1051300070912A0380912B0390912C030E94E8190F
:1051400022961FAE229793E023969FAF2397249633
:105150008FAF24978EEF25968FAF259764E005C01B
:105160008FEF22968FAF229761E0CE018F5B9F4F2A
:105170000E94131736CD80E189BD82E189BD09B453
:1051800000FEFDCF8091D8008F7D8093D800809164
:10519000E00082608093E0008091E00081FDFCCF20
:1051A00020CD9F3F09F036CE3ECE0895882319F0DA
:1051B0005198599A02C0519A59985098589A95E026
:1051C0009A95F1F70000509A589895E09A95F1F762
:1051D0000000882311F0519A599885E08A95F1F7DB
:1051E00000000895EF92FF920F931F93CF93DF93E8
:1051F0007C01C2E3D3E000E010E0F70184810730D6
:1052000011051CF4882339F002C0811104C09E01ED
:105210004091AA0202C09E0140E06091A9028091E3
:10522000A8020E94A6100F5F1F4F24960F30110591
:1052300021F70E94CA0FF701248130E02F5F3F4F12
:10524000217033272483DF91CF911F910F91FF901D
:10525000EF900895EF92FF920F931F93CF93DF93F8
:10526000EC012C813D812F5F3F4F217033273D831F
:105270002C8382E3E82E83E0F82E10E005E5812FF1
:1052800086954C815D81480F511D842F8170970157
:105290004091AA026091A902809F802D11240E9452
:1052A000A6101F5F84E0E80EF11C1F3041F7DF916C
:1052B000CF911F910F91FF90EF900C94CA0F0F9315
:1052C0001F93CF93DF9380E090E0FC01EE5CFC4FF6
:1052D00011821082128204968C339105B1F7C0E0DE
:1052E000D0E00FE010E0CE01B8010E94A52FFC0134
:1052F00080913003082E000C990BEE0FFF1FEE0F6C
:10530000FF1FC817D907A4F080911F01082E000CB9
:10531000990B8C179D0764F09F012E5C3C4F4091C8
:10532000AA026091A9028091A8020E94A61005C05D
:10533000EE5CFC4F1182108212822196CF30D10593
:1053400091F60E94CA0F80911E0190913003980F30
:105350009093300320911F01280F20931F011216F4
:1053600014F49E301CF0819580931E01DF91CF9143
:105370001F910F9108959F92AF92BF92CF92DF92AB
:10538000EF92FF920F931F93CF93DF93FC018281E3
:1053900080FF03C0BB24BA9402C0BB24B39422E3B1
:1053A000E22E23E0F22E04E313E0C0E0D0E03FE081
:1053B000932EF80131971082F7011082F8011082C4
:1053C00094E0C92ED12CA12C80912F038A0D80311D
:1053D0002CF0692D0E94832F892F02C087FD815FE9
:1053E000082E000C990BC817D90791F48091AA02D6
:1053F0008C9DA0018D9D500D112455954795559577
:10540000479597016091A9028091A8020E94A61079
:10541000AB0CF1E0CF1AD108B9F6219684E0E80E82
:10542000F11C0C5F1F4FCF30D10509F0C2CF0E9495
:10543000CA0F80912F0391E0B91206C0811102C0FA
:105440008EE007C0815005C090E00196BE010E9429
:10545000A52F80932F03DF91CF911F910F91FF9084
:10546000EF90DF90CF90BF90AF909F900895EF9214
:10547000FF921F93CF93DF93EC0182E3E82E83E04A
:10548000F82E10E08C8197014091AA026091A90248
:10549000810F0E94A6101F5E84E0E80EF11C1F3FE2
:1054A00089F70E94CA0F8A819C8180FF02C09F5F9A
:1054B00001C091509C83DF91CF911F91FF90EF909D
:1054C00008950F931F93CF93DF9300D000D0CDB7F3
:1054D000DEB78C018091310381110AC09E012F5FDC
:1054E0003F4F4FEF6FEF0E94A6108A8180933103E8
:1054F000F8018481813051F028F0823061F44091CC
:1055000031030AC08091310340E007C0609131034C
:1055100040E080E003C040E080E060E00E944C108A
:10552000F801248130E0C901019663E070E00E9437
:10553000A52F84830F900F900F900F90DF91CF9144
:105540001F910F910895CF93DF93EC01E7EAF2E00A
:10555000438162818C810E943C118C818F5F8C839E
:10556000DF91CF910895CF93DF93EC01EC81F0E0D0
:10557000E65BF54F4491E7EAF2E0628181810E94A7
:105580003C118C818F5F8C83DF91CF910895EF92D6
:10559000FF920F931F93CF93DF93CDB7DEB767973B
:1055A0000FB6F894DEBF0FBECDBF4B8B5C8B6D8BFF
:1055B0007E8B8F8B0E891F8901151105C1F15F3F0D
:1055C00011F44F3FA1F1E42EF12CA1E0B0E0042E44
:1055D00001C0AA0F0A94EAF7852F90E0662319F01C
:1055E0002091270206C09C012C583C4FF9012081D4
:1055F0002A232223A9F046E0489F9001499F300DBD
:105600001124F701E20FF31FEE0FFF1FEE5AFE4FBA
:1056100040815181FC01EC58FC4F9081A92B06C0C0
:10562000FC01EC58FC4FA0958081A823A08386E064
:10563000FE013D96DF01982F1D929A95E9F74D875F
:105640005E876F87198B088BDE01179601900D928C
:105650008A95E1F7CE0107960E94071C811137C099
:1056600086E0FE013796DE01119601900D928A9533
:10567000E1F7FF81E8856A857B856115710539F160
:10568000EF3F11F4FF3F19F120912E0230E0C901E4
:1056900001968770992740915F0250E08417950723
:1056A00079F1F983EA837D836C8396E0929FD00140
:1056B000939FB00D1124A15DBD4FFE013196019065
:1056C0000D929A95E1F780932E020E94A21B16E09C
:1056D00080915F0290912E02891701F1189FC001FD
:1056E0001124815D9D4F0E94071C8823B9F0809191
:1056F0005F0290E001968770992780935F02E8CF60
:105700000E94B22C10922E0210925F02E8E2F2E0A8
:1057100086E0DF011D928A95E9F7D9CF67960FB62B
:10572000F894DEBF0FBECDBFDF91CF911F910F91D7
:10573000FF90EF90089520917203309173038217C8
:10574000930771F09093730380937203E091F702D3
:10575000F091F802309721F00084F185E02D099452
:10576000089520917003309171038217930771F0AF
:105770009093710380937003E091F702F091F80227
:10578000309721F00680F781E02D09940895E0918B
:10579000F702F091F802309721F00190F081E02DAE
:1057A000099480E00895CF93DF93D82FC8E08D2F20
:1057B00080780E94D628DD0FC150C9F780E00E9492
:1057C000D62885E08A95F1F7000085E08A95F1F703
:1057D000000080E0DF91CF9108950F931F93CF9346
:1057E000DF93C62FD42F022FFC0182818823C9F0BA
:1057F0006093FB010E94AA1890936F0380936E033D
:1058000080E28C0F883008F050C0C77081E001C082
:10581000880FCA95EAF7DF91CF911F910F910C94F1
:10582000E72C1091FB01161330C080916E0390910C
:105830006F030E948018883C910538F5C0E2CD0FB7
:105840001D17B9F080E2810F883040F4177081E0B5
:1058500001C0880F1A95EAF70E94DC2CC83048F482
:1058600081E09D2F977001C0880F9A95EAF70E94FA
:10587000E72C802F0E94722EC830B8F4D77081E0D8
:1058800001C0880FDA95EAF70AC080E28C0F8830F1
:1058900060F4C77081E001C0880FCA95EAF7DF9114
:1058A000CF911F910F910C94DC2CDF91CF911F9120
:1058B0000F9108956091A702669570E04BE050E06B
:1058C00083E191E00E94F830892B19F481E0809304
:1058D00028030E94AA18909322038093210308951D
:1058E0000E94C51A292F2F7092959F70E92FF0E022
:1058F0003297EE30F105B8F4E658FF4F0C94B92F0B
:10590000803F99F018F4883E70F40FC0843F59F43A
:105910000CC0883E50F0813F31F407C0822F86953D
:1059200086958695089580E0089581E00895109207
:105930009902109298020E943E1AE8E0F3E086E095
:10594000DF011D928A95E9F710920E031092A402CE
:105950000E94B61880E090E00E94B12B80E090E0B9
:105960000C949B2B10929A0280910601882331F0AF
:105970008091F40287FF02C08EE101C086E0E8E07A
:10598000F2E0DF011D928A95E9F70C94972C8823A9
:1059900041F08095909199028923809399020C940B
:1059A0003E1A0895882339F090919902892B8093AB
:1059B00099020C943E1A0895882341F080959091A5
:1059C0009A02892380939A020C943E1A08958823A0
:1059D00039F090919A02892B80939A020C943E1A86
:1059E0000895882309F463C0823869F40E94C72BA4
:1059F00081FF5DC069E386E092E00E9420190E9469
:105A00003E1A69E30EC0833891F40E94C72B80FFD1
:105A10004EC063E586E092E00E9420190E943E1A83
:105A200063E586E092E00E94F5180C943E1A8438F3
:105A300069F40E94C72B82FF3AC067E486E092E0D7
:105A40000E9420190E943E1A67E4EBCF9CEF980F4A
:105A5000913A10F4682FE5CF90E2980F983088F4CF
:105A6000877021E030E0A90102C0440F551F8A95DC
:105A7000E2F7CA01809590919A02892380939A0255
:105A8000D4CF9BE5980F933020F480E090E00C9405
:105A9000B12B98E5980F973120F480E090E00C94BA
:105AA0009B2B803F20F00E942B170C94B618089572
:105AB000882309F416C18238B1F40E94C72B81FDF6
:105AC00010C169E386E092E00E9420190E943E1A0C
:105AD0002FEF41EE54E0215040405040E1F700C02C
